{
  "_format": "hh-sol-artifact-1",
  "contractName": "ProfileRegistry",
  "sourceName": "contracts/ProfileRegistry.sol",
  "abi": [
    {
      "anonymous": false,
      "inputs": [
        {
          "indexed": true,
          "internalType": "address",
          "name": "user",
          "type": "address"
        },
        {
          "indexed": false,
          "internalType": "string",
          "name": "cid",
          "type": "string"
        }
      ],
      "name": "ProfileUpdated",
      "type": "event"
    },
    {
      "inputs": [
        {
          "internalType": "address",
          "name": "user",
          "type": "address"
        }
      ],
      "name": "getProfile",
      "outputs": [
        {
          "internalType": "string",
          "name": "",
          "type": "string"
        }
      ],
      "stateMutability": "view",
      "type": "function"
    },
    {
      "inputs": [
        {
          "internalType": "address",
          "name": "",
          "type": "address"
        }
      ],
      "name": "profiles",
      "outputs": [
        {
          "internalType": "string",
          "name": "",
          "type": "string"
        }
      ],
      "stateMutability": "view",
      "type": "function"
    },
    {
      "inputs": [
        {
          "internalType": "string",
          "name": "cid",
          "type": "string"
        }
      ],
      "name": "updateProfile",
      "outputs": [],
      "stateMutability": "nonpayable",
      "type": "function"
    }
  ],
  "bytecode": "0x6080806040523461001657610431908161001c8239f35b600080fdfe604060808152600436101561001357600080fd5b600090813560e01c80629299e3146100cd5780630f53a470146100915763bbe156271461003f57600080fd5b3461008d57602036600319011261008d576004356001600160a01b0381169081900361008957818361007a9261008595528060205220610330565b9051918291826102ad565b0390f35b8280fd5b5080fd5b503461008d57602036600319011261008d576004356001600160a01b0381169081900361008957818361007a9261008595528060205220610330565b503461008d57602080600319360112610089576004359067ffffffffffffffff928383116102a957366023840112156102a95782600401359384116102a95760249236602486830101116102a55784903387528684528287209461013186546102f6565b601f8111610255575b508790601f84116001146101c15750907fdd635a4cd84864e37e4479dbfc2ec667acfa473c83c8422a8ac9d9d07599b01c95836024938a916101b4575b508460011b906000198660031b1c19161790555b82845195808752860152018284013784818584010152813394601f80199101168101030190a280f35b8491508301013538610177565b90601f969296198416838a52868a20928a905b8282106102375750509160249391857fdd635a4cd84864e37e4479dbfc2ec667acfa473c83c8422a8ac9d9d07599b01c99941061021b575b5050600184811b01905561018b565b8301840135600019600387901b60f8161c19169055388061020c565b89840181013585558a965060019094019392880192908801906101d4565b90919250858852848820601f880160051c81019186891061029b575b90601f89959493920160051c01905b81811061028d575061013a565b898155889450600101610280565b9091508190610271565b8580fd5b8480fd5b6020808252825181830181905290939260005b8281106102e257505060409293506000838284010152601f8019910116010190565b8181018601518482016040015285016102c0565b90600182811c92168015610326575b602083101461031057565b634e487b7160e01b600052602260045260246000fd5b91607f1691610305565b90604051916000908054610343816102f6565b908186526020926001916001811690816000146103dd57506001146103a1575b50505050829003601f01601f1916820167ffffffffffffffff81118382101761038b57604052565b634e487b7160e01b600052604160045260246000fd5b909293506000528260002091836000935b8385106103c9575050505083010138808080610363565b8054888601830152930192849082016103b2565b60ff191688860152505050151560051b84010190503880808061036356fea26469706673582212208c91b756b7fddc01592b1eeb8075f62978544fc249c90ef16762a64dd2c2347a64736f6c63430008180033",
  "linkReferences": {},
  "deployedLinkReferences": {}
}