{"contracts/ProfileRegistryV2.sol":{"ProfileRegistryV2":{"abi":[{"inputs":[],"stateMutability":"nonpayable","type":"constructor"},{"inputs":[{"internalType":"address","name":"target","type":"address"}],"name":"AddressEmptyCode","type":"error"},{"inputs":[],"name":"AlreadyVoted","type":"error"},{"inputs":[{"internalType":"address","name":"implementation","type":"address"}],"name":"ERC1967InvalidImplementation","type":"error"},{"inputs":[],"name":"ERC1967NonPayable","type":"error"},{"inputs":[],"name":"EnforcedPause","type":"error"},{"inputs":[],"name":"ExpectedPause","type":"error"},{"inputs":[],"name":"FailedCall","type":"error"},{"inputs":[],"name":"InsufficientVotes","type":"error"},{"inputs":[],"name":"InvalidGuardianCount","type":"error"},{"inputs":[],"name":"InvalidInitialization","type":"error"},{"inputs":[],"name":"InvalidMultisig","type":"error"},{"inputs":[],"name":"InvalidThreshold","type":"error"},{"inputs":[],"name":"InvalidTimeLock","type":"error"},{"inputs":[],"name":"MultisigRequiredForAction","type":"error"},{"inputs":[],"name":"NoRecoveryPending","type":"error"},{"inputs":[],"name":"NotAGuardian","type":"error"},{"inputs":[],"name":"NotInitializing","type":"error"},{"inputs":[{"internalType":"address","name":"owner","type":"address"}],"name":"OwnableInvalidOwner","type":"error"},{"inputs":[{"internalType":"address","name":"account","type":"address"}],"name":"OwnableUnauthorizedAccount","type":"error"},{"inputs":[],"name":"RecoveryAlreadyPending","type":"error"},{"inputs":[],"name":"RecoveryNotConfigured","type":"error"},{"inputs":[],"name":"TimeLockNotExpired","type":"error"},{"inputs":[],"name":"UUPSUnauthorizedCallContext","type":"error"},{"inputs":[{"internalType":"bytes32","name":"slot","type":"bytes32"}],"name":"UUPSUnsupportedProxiableUUID","type":"error"},{"anonymous":false,"inputs":[{"indexed":true,"internalType":"address","name":"user","type":"address"},{"indexed":true,"internalType":"address","name":"guardian","type":"address"}],"name":"GuardianAdded","type":"event"},{"anonymous":false,"inputs":[{"indexed":true,"internalType":"address","name":"user","type":"address"},{"indexed":true,"internalType":"address","name":"guardian","type":"address"}],"name":"GuardianRemoved","type":"event"},{"anonymous":false,"inputs":[{"indexed":false,"internalType":"uint64","name":"version","type":"uint64"}],"name":"Initialized","type":"event"},{"anonymous":false,"inputs":[{"indexed":false,"internalType":"uint256","name":"userCount","type":"uint256"}],"name":"MultisigActivated","type":"event"},{"anonymous":false,"inputs":[{"indexed":true,"internalType":"address","name":"oldMultisig","type":"address"},{"indexed":true,"internalType":"address","name":"newMultisig","type":"address"}],"name":"MultisigUpdated","type":"event"},{"anonymous":false,"inputs":[{"indexed":true,"internalType":"address","name":"previousOwner","type":"address"},{"indexed":true,"internalType":"address","name":"newOwner","type":"address"}],"name":"OwnershipTransferred","type":"event"},{"anonymous":false,"inputs":[{"indexed":false,"internalType":"address","name":"account","type":"address"}],"name":"Paused","type":"event"},{"anonymous":false,"inputs":[{"indexed":true,"internalType":"address","name":"user","type":"address"},{"indexed":false,"internalType":"string","name":"cid","type":"string"},{"indexed":false,"internalType":"uint256","name":"timestamp","type":"uint256"}],"name":"ProfileUpdated","type":"event"},{"anonymous":false,"inputs":[{"indexed":true,"internalType":"address","name":"user","type":"address"}],"name":"RecoveryCancelled","type":"event"},{"anonymous":false,"inputs":[{"indexed":true,"internalType":"address","name":"user","type":"address"},{"indexed":false,"internalType":"string","name":"newCid","type":"string"}],"name":"RecoveryCompleted","type":"event"},{"anonymous":false,"inputs":[{"indexed":true,"internalType":"address","name":"user","type":"address"},{"indexed":false,"internalType":"uint256","name":"guardianCount","type":"uint256"},{"indexed":false,"internalType":"uint256","name":"threshold","type":"uint256"}],"name":"RecoveryConfigured","type":"event"},{"anonymous":false,"inputs":[{"indexed":true,"internalType":"address","name":"user","type":"address"},{"indexed":true,"internalType":"address","name":"initiator","type":"address"},{"indexed":false,"internalType":"uint256","name":"completesAt","type":"uint256"}],"name":"RecoveryInitiated","type":"event"},{"anonymous":false,"inputs":[{"indexed":true,"internalType":"address","name":"user","type":"address"},{"indexed":true,"internalType":"address","name":"guardian","type":"address"},{"indexed":false,"internalType":"uint256","name":"totalVotes","type":"uint256"}],"name":"RecoveryVoteSubmitted","type":"event"},{"anonymous":false,"inputs":[{"indexed":false,"internalType":"address","name":"account","type":"address"}],"name":"Unpaused","type":"event"},{"anonymous":false,"inputs":[{"indexed":true,"internalType":"address","name":"implementation","type":"address"}],"name":"Upgraded","type":"event"},{"anonymous":false,"inputs":[{"indexed":true,"internalType":"address","name":"user","type":"address"},{"indexed":false,"internalType":"uint256","name":"totalUsers","type":"uint256"}],"name":"UserRegistered","type":"event"},{"inputs":[],"name":"DECENTRALIZATION_THRESHOLD","outputs":[{"internalType":"uint256","name":"","type":"uint256"}],"stateMutability":"view","type":"function"},{"inputs":[],"name":"MAX_GUARDIANS","outputs":[{"internalType":"uint256","name":"","type":"uint256"}],"stateMutability":"view","type":"function"},{"inputs":[],"name":"MIN_GUARDIANS","outputs":[{"internalType":"uint256","name":"","type":"uint256"}],"stateMutability":"view","type":"function"},{"inputs":[],"name":"MIN_TIME_LOCK_HOURS","outputs":[{"internalType":"uint256","name":"","type":"uint256"}],"stateMutability":"view","type":"function"},{"inputs":[],"name":"UPGRADE_INTERFACE_VERSION","outputs":[{"internalType":"string","name":"","type":"string"}],"stateMutability":"view","type":"function"},{"inputs":[],"name":"cancelRecovery","outputs":[],"stateMutability":"nonpayable","type":"function"},{"inputs":[{"internalType":"address","name":"user","type":"address"},{"internalType":"string","name":"newCid","type":"string"}],"name":"completeRecovery","outputs":[],"stateMutability":"nonpayable","type":"function"},{"inputs":[{"internalType":"address[]","name":"_guardians","type":"address[]"},{"internalType":"uint256","name":"_threshold","type":"uint256"},{"internalType":"uint256","name":"_timeLockHours","type":"uint256"},{"internalType":"string[]","name":"_shareCids","type":"string[]"},{"internalType":"bytes32","name":"_verificationHash","type":"bytes32"}],"name":"configureRecovery","outputs":[],"stateMutability":"nonpayable","type":"function"},{"inputs":[{"internalType":"address","name":"user","type":"address"}],"name":"getGuardians","outputs":[{"internalType":"address[]","name":"","type":"address[]"}],"stateMutability":"view","type":"function"},{"inputs":[{"internalType":"address","name":"user","type":"address"}],"name":"getPendingRecovery","outputs":[{"internalType":"address","name":"initiator","type":"address"},{"internalType":"uint256","name":"initiatedAt","type":"uint256"},{"internalType":"uint256","name":"votesReceived","type":"uint256"},{"internalType":"bool","name":"cancelled","type":"bool"},{"internalType":"bool","name":"completed","type":"bool"},{"internalType":"uint256","name":"timeLockEnd","type":"uint256"}],"stateMutability":"view","type":"function"},{"inputs":[{"internalType":"address","name":"user","type":"address"}],"name":"getProfile","outputs":[{"internalType":"string","name":"","type":"string"}],"stateMutability":"view","type":"function"},{"inputs":[{"internalType":"address","name":"user","type":"address"}],"name":"getRecoveryConfig","outputs":[{"internalType":"uint256","name":"timeLockHours","type":"uint256"},{"internalType":"uint256","name":"threshold","type":"uint256"},{"internalType":"string[]","name":"shareCids","type":"string[]"},{"internalType":"bytes32","name":"verificationHash","type":"bytes32"},{"internalType":"bool","name":"configured","type":"bool"}],"stateMutability":"view","type":"function"},{"inputs":[{"internalType":"address","name":"","type":"address"},{"internalType":"uint256","name":"","type":"uint256"}],"name":"guardians","outputs":[{"internalType":"address","name":"","type":"address"}],"stateMutability":"view","type":"function"},{"inputs":[{"internalType":"address","name":"_multisig","type":"address"}],"name":"initialize","outputs":[],"stateMutability":"nonpayable","type":"function"},{"inputs":[{"internalType":"address","name":"user","type":"address"}],"name":"initiateRecovery","outputs":[],"stateMutability":"nonpayable","type":"function"},{"inputs":[],"name":"isDecentralized","outputs":[{"internalType":"bool","name":"","type":"bool"}],"stateMutability":"view","type":"function"},{"inputs":[{"internalType":"address","name":"","type":"address"},{"internalType":"address","name":"","type":"address"}],"name":"isGuardian","outputs":[{"internalType":"bool","name":"","type":"bool"}],"stateMutability":"view","type":"function"},{"inputs":[{"internalType":"address","name":"","type":"address"}],"name":"lastUpdated","outputs":[{"internalType":"uint256","name":"","type":"uint256"}],"stateMutability":"view","type":"function"},{"inputs":[],"name":"multisig","outputs":[{"internalType":"address","name":"","type":"address"}],"stateMutability":"view","type":"function"},{"inputs":[],"name":"multisigRequired","outputs":[{"internalType":"bool","name":"","type":"bool"}],"stateMutability":"view","type":"function"},{"inputs":[],"name":"owner","outputs":[{"internalType":"address","name":"","type":"address"}],"stateMutability":"view","type":"function"},{"inputs":[],"name":"pause","outputs":[],"stateMutability":"nonpayable","type":"function"},{"inputs":[],"name":"paused","outputs":[{"internalType":"bool","name":"","type":"bool"}],"stateMutability":"view","type":"function"},{"inputs":[{"internalType":"address","name":"","type":"address"}],"name":"profiles","outputs":[{"internalType":"string","name":"","type":"string"}],"stateMutability":"view","type":"function"},{"inputs":[],"name":"proxiableUUID","outputs":[{"internalType":"bytes32","name":"","type":"bytes32"}],"stateMutability":"view","type":"function"},{"inputs":[{"internalType":"address","name":"","type":"address"}],"name":"recoveryConfigs","outputs":[{"internalType":"uint256","name":"timeLockHours","type":"uint256"},{"internalType":"uint256","name":"threshold","type":"uint256"},{"internalType":"bytes32","name":"verificationHash","type":"bytes32"},{"internalType":"bool","name":"configured","type":"bool"}],"stateMutability":"view","type":"function"},{"inputs":[],"name":"renounceOwnership","outputs":[],"stateMutability":"nonpayable","type":"function"},{"inputs":[{"internalType":"address","name":"_newMultisig","type":"address"}],"name":"setMultisig","outputs":[],"stateMutability":"nonpayable","type":"function"},{"inputs":[],"name":"totalUsers","outputs":[{"internalType":"uint256","name":"","type":"uint256"}],"stateMutability":"view","type":"function"},{"inputs":[{"internalType":"address","name":"newOwner","type":"address"}],"name":"transferOwnership","outputs":[],"stateMutability":"nonpayable","type":"function"},{"inputs":[],"name":"unpause","outputs":[],"stateMutability":"nonpayable","type":"function"},{"inputs":[{"internalType":"string","name":"cid","type":"string"}],"name":"updateProfile","outputs":[],"stateMutability":"nonpayable","type":"function"},{"inputs":[{"internalType":"address","name":"newImplementation","type":"address"},{"internalType":"bytes","name":"data","type":"bytes"}],"name":"upgradeToAndCall","outputs":[],"stateMutability":"payable","type":"function"},{"inputs":[],"name":"usersUntilDecentralization","outputs":[{"internalType":"uint256","name":"","type":"uint256"}],"stateMutability":"view","type":"function"},{"inputs":[],"name":"version","outputs":[{"internalType":"string","name":"","type":"string"}],"stateMutability":"pure","type":"function"},{"inputs":[{"internalType":"address","name":"user","type":"address"}],"name":"voteForRecovery","outputs":[],"stateMutability":"nonpayable","type":"function"}],"evm":{"bytecode":{"linkReferences":{},"object":"60a080604052346100cc57306080527ff0c57e16840df040f15088dc2f81fe391c3923bec73e23a9662efc9c229c6a009081549060ff8260401c166100bd57506001600160401b036002600160401b031982821601610078575b60405161210490816100d2823960805181818161139901526114520152f35b6001600160401b031990911681179091556040519081527fc7f505b2f371ae2175ee4913f4499e1f2633a7b5936321eed1cdaeb6115181d290602090a1388080610059565b63f92ee8a960e01b8152600490fd5b600080fdfe6080604052600436101561001257600080fd5b60003560e01c80629299e3146119945780630a6f93e61461195a5780630ba234d6146118ce5780630f53a47014610d2257806315740b08146118ab5780632788bbda1461178e5780633f4ba83a146116f0578063421f951514611280578063422c1d37146116d45780634783c35b146116ab57806347d05bf8146116525780634f1ef2861461140357806352d1902d1461138657806354fd4d50146113405780635c975abb14611310578063715018a6146112a65780637241784c146112805780637c8e804e1461121f5780638456cb59146111915780638da5cb5b1461115b5780638f2a90991461104f57806395e7ddd414610dba578063ad3cb1cc14610d74578063bbe1562714610d22578063bff1f9e114610d04578063c4d66de814610b9d578063c4e731a01461066f578063c81c083e14610653578063c859c10b14610636578063d4ee9734146105dc578063d5ce9aad1461042f578063ed1d0d131461035d578063f18858ab146102aa578063f2fde38b1461027f578063f3283fba146101c85763f91b0432146101a757600080fd5b346101c35760003660031901126101c357602060405160038152f35b600080fd5b346101c35760203660031901126101c3576101e1611bdb565b6003549060ff8260a01c16600014610272576001600160a01b0382163303610260575b6001600160a01b0390811691821561024e576001600160a01b031981168317600355167f5f90d712a0af15f5a6f562235036d7264213de74a0dc9698581daa47c52b79d3600080a3005b6040516301f7885560e21b8152600490fd5b60405163c12f2a8160e01b8152600490fd5b61027a611f91565b610204565b346101c35760203660031901126101c3576102a861029b611bdb565b6102a3611f91565b611ef2565b005b346101c3576020806003193601126101c3576001600160a01b0390816102ce611bdb565b1660005260058152604060002060405191828183549182815201908193600052826000209060005b818110610347575050508361030c910384611c7a565b60405192818401908285525180915260408401929160005b8281106103315785850386f35b8351871685529381019392810192600101610324565b82548816845292840192600192830192016102f6565b346101c35760203660031901126101c3576001600160a01b038061037f611bdb565b16600052600760205260406000206004602052604060002091600090600183015493846103e9575b5060c09360ff91845416936003600282015491015491604051958652602086015260408501528181161515606085015260081c161515608083015260a0820152f35b90915054610e1090818102918183041490151715610419578361041060ff9260c096611ec1565b929150936103a7565b634e487b7160e01b600052601160045260246000fd5b346101c3576020806003193601126101c357610449611bdb565b610451611f66565b6001600160a01b03166000818152600683526040808220338352845290205460ff16156105ca57806000526004825260ff60046040600020015416156105b85780600052600782526040600020600181019081541515806105a9575b80610597575b61058557600491336bffffffffffffffffffffffff60a01b835416178255429055600160028201556003810161ffff198154169055336000520182526040600020600160ff198254161790558060005260048252604060002054610e10908181029181830414901517156104195761052b9042611ec1565b604051908152817fe290ea2cc3cfeb5114f992dc8be9e503de30042c13b9298644a2679b09e17a04843393a37f09ba9aae59b148fb52366bdf0fa0f92591643c187095c73c0098c75687829d8460405192600184523393a3005b604051631c730b7360e31b8152600490fd5b5060ff600382015460081c16156104b3565b5060ff600382015416156104ad565b604051631805d35760e11b8152600490fd5b60405163475d03f760e01b8152600490fd5b346101c35760403660031901126101c3576105f5611bdb565b6001600160a01b0360243581811692908390036101c357166000526006602052604060002090600052602052602060ff604060002054166040519015158152f35b346101c35760003660031901126101c35760206040516101f48152f35b346101c35760003660031901126101c357602060405160188152f35b346101c35760a03660031901126101c3576004356001600160401b0381116101c35761069f903690600401611dcc565b906064356001600160401b0381116101c3576106bf903690600401611dcc565b906106c8611f66565b600384108015610b93575b610b52576002602435108015610b88575b610b7657601860443510610b6457838203610b525733600052600560205260406000209160005b835481101561075657600190336000526006602052604060002061072f8287611c31565b848060a01b0391549060031b1c16600052602052604060002060ff1981541690550161070b565b50915091336000526005602052604060002080546000825580610b36575b505060005b848110610a6a5750506040519160a083018381106001600160401b0382111761099f57604052604435835260243560208401526107b582611eaa565b916107c36040519384611c7a565b8083526020830191368260051b8201116101c35780925b8260051b82018410610a2e575050505060408201908152608435606083015260016080830152336000526004602052604060002090825182556020830151600183015551805190600160401b821161099f5760028301548260028501558083106109b5575b5060200190600283016000526020600020916000905b8282106108b557868660806004886060840151600382015501910151151560ff8019835416911617905560405190815260243560208201527f9ba32a4bfb6d1027e66bd016e66b9b205ee6db57e5089163bc64390665ce0ac760403392a2005b80518051906001600160401b03821161099f576108dc826108d68854611ced565b88611e13565b602090601f831160011461092f579261091583600195946020948796600092610924575b50508160011b916000199060031b1c19161790565b87555b01940191019092610855565b015190508d80610900565b908660005260206000209160005b601f1985168110610987575083602093600196938796938794601f1981161061096e575b505050811b018755610918565b015160001960f88460031b161c191690558c8080610961565b9192602060018192868501518155019401920161093d565b634e487b7160e01b600052604160045260246000fd5b600284016000526020600020908382015b81830181106109d657505061083f565b806109e360019254611ced565b806109f0575b50016109c6565b601f908181118414610a09575050600081555b896109e9565b610a2560009284845260208420920160051c8201858301611dfc565b81835555610a03565b83356001600160401b0381116101c357820136601f820112156101c357602091610a5f839236908481359101611cb6565b8152019301926107da565b336000526005602052604060002090610a8c610a87828886611ece565b611ede565b825492600160401b84101561099f57610aad60019485928382018155611c31565b92858060a01b0393848084549260031b9316831b921b1916179055336000526006602052604060002082610ae5610a87868c8a611ece565b1660005260205260406000209060ff19825416179055610b09610a87838987611ece565b16337fbc3292102fa77e083913064b282926717cdfaede4d35f553d66366c0a3da755a600080a301610779565b610b4b91600052602060002090810190611dfc565b8480610774565b6040516345d0f35560e01b8152600490fd5b60405163e77d7d5760e01b8152600490fd5b60405163aabd5a0960e01b8152600490fd5b5083602435116106e4565b50600584116106d3565b346101c35760203660031901126101c357610bb6611bdb565b7ff0c57e16840df040f15088dc2f81fe391c3923bec73e23a9662efc9c229c6a009081549060ff8260401c1615916001600160401b03811680159081610cfc575b6001149081610cf2575b159081610ce9575b50610cd75767ffffffffffffffff198116600117845582610cb8575b50610c2e611fca565b610c36611fca565b610c3f33611ef2565b610c47611fca565b610c4f611fca565b6001600160a01b0316801561024e576affffffffffffffffffffff60a81b6003541617600355610c7b57005b68ff00000000000000001981541690557fc7f505b2f371ae2175ee4913f4499e1f2633a7b5936321eed1cdaeb6115181d2602060405160018152a1005b68ffffffffffffffffff19166801000000000000000117835583610c25565b60405163f92ee8a960e01b8152600490fd5b90501585610c09565b303b159150610c01565b849150610bf7565b346101c35760003660031901126101c3576020600254604051908152f35b346101c35760203660031901126101c3576001600160a01b03610d43611bdb565b166000526000602052610d70610d5c6040600020611d27565b604051918291602083526020830190611bf1565b0390f35b346101c35760003660031901126101c357610d70604051610d9481611c5f565b60058152640352e302e360dc1b6020820152604051918291602083526020830190611bf1565b346101c35760403660031901126101c357610dd3611bdb565b6001600160401b03906024358281116101c357610df4903690600401611bae565b91610dfd611f66565b60018060a01b0316918260005260209360068552604060002033600052855260ff60406000205416156105ca5783600052600785526040600020906001908183015480158015611041575b8015611030575b61101e5786600052600488526040600020908154610e109081810291818304149015171561041957610e8091611ec1565b421061100c5782600285015491015411610ffa578560005260008752604060002090841161099f57610ebc84610eb68354611ced565b83611e13565b6000601f8511600114610f85579160008051602061208f83398151915296979391610f018680600396600091610f7a575b508160011b916000199060031b1c19161790565b90555b876000528352426040600020550161010061ff0019825416179055847f13c771563a16f02af4efc013304241799d98b4f54d3259db3d0d02a9267d101a60405183815280610f558582018789611e67565b0390a2610f6f604051938493604085526040850191611e67565b9042908301520390a2005b90508901358c610eed565b601f1985169082600052886000209160005b818110610fe557509160008051602061208f8339815191529899959391876003969410610fcd575b50508186811b019055610f04565b88013560001988871b60f8161c191690558980610fbf565b88830135845592850192918a01918a01610f97565b604051633048076b60e11b8152600490fd5b60405163191f4d1b60e31b8152600490fd5b60405163cbfae98d60e01b8152600490fd5b5060ff600385015460081c16610e4f565b5060ff600385015416610e48565b346101c3576020806003193601126101c357611069611bdb565b611071611f66565b6001600160a01b03166000818152600683526040808220338352845290205460ff16156105ca5780600052600782526040600020600181015415801561114d575b801561113c575b61101e57600481013360005280845260ff6040600020541661112a577f09ba9aae59b148fb52366bdf0fa0f92591643c187095c73c0098c75687829d84916002913360005285526040600020600160ff19825416179055019261111c8454611e58565b8094556040519384523393a3005b604051637c9a1cf960e01b8152600490fd5b5060ff600382015460081c166110b9565b5060ff6003820154166110b2565b346101c35760003660031901126101c35760008051602061206f833981519152546040516001600160a01b039091168152602090f35b346101c35760003660031901126101c35760035460ff8160a01c16600014611211576001600160a01b03163303610260575b6111cb611f66565b6000805160206120af833981519152600160ff198254161790557f62e78cea01bee320cd4e420270b5ea74000d11b0c9f74754ebdbfc544b05a2586020604051338152a1005b5061121a611f91565b6111c3565b346101c35760203660031901126101c3576001600160a01b03611240611bdb565b1660005260046020526080604060002080549060018101549060ff6004600383015492015416916040519384526020840152604083015215156060820152f35b346101c35760003660031901126101c357602060ff60035460a01c166040519015158152f35b346101c35760003660031901126101c3576112bf611f91565b60008051602061206f83398151915280546001600160a01b031981169091556000906001600160a01b03167f8be0079c531659141344cd1fd0a4f28419497f9722a3daafe3b4186f6b6457e08280a3005b346101c35760003660031901126101c357602060ff6000805160206120af83398151915254166040519015158152f35b346101c35760003660031901126101c357610d7060405161136081611c5f565b60058152640322e302e360dc1b6020820152604051918291602083526020830190611bf1565b346101c35760003660031901126101c3577f00000000000000000000000000000000000000000000000000000000000000006001600160a01b031630036113f15760206040517f360894a13ba1a3210667c828492db98dca3e2076cc3735a920a3ca505d382bbc8152f35b60405163703e46dd60e11b8152600490fd5b60403660031901126101c357611417611bdb565b6024356001600160401b0381116101c357366023820112156101c357611447903690602481600401359101611cb6565b906001600160a01b037f00000000000000000000000000000000000000000000000000000000000000008116308114908115611624575b506113f1578060035460ff8160a01c1660001461161557163303610260575b6040516352d1902d60e01b8152908216916020918281600481875afa600091816115e6575b506114e057604051634c9c8ce360e01b815260048101859052602490fd5b9284937f360894a13ba1a3210667c828492db98dca3e2076cc3735a920a3ca505d382bbc908181036115ce5750823b156115b55780546001600160a01b03191682179055604051907fbc7cd75a20ee27fd9adebab32041f755214dbc6bffa90cc0225b39da2e5c2d3b600080a283511561159b575060008084846102a896519101845af4903d15611592573d61157581611c9b565b906115836040519283611c7a565b8152600081943d92013e61200b565b6060925061200b565b92505050346115a657005b63b398979f60e01b8152600490fd5b604051634c9c8ce360e01b815260048101839052602490fd5b60249060405190632a87526960e21b82526004820152fd5b9091508381813d831161160e575b6115fe8183611c7a565b810103126101c3575190866114c2565b503d6115f4565b505061161f611f91565b61149d565b9050817f360894a13ba1a3210667c828492db98dca3e2076cc3735a920a3ca505d382bbc541614158461147e565b346101c35760403660031901126101c35761166b611bdb565b6024359060018060a01b038091166000526005602052604060002080548310156101c35760209261169b91611c31565b9190546040519260031b1c168152f35b346101c35760003660031901126101c3576003546040516001600160a01b039091168152602090f35b346101c35760003660031901126101c357602060405160058152f35b346101c35760003660031901126101c35760035460ff8160a01c16600014611780576001600160a01b03163303610260575b6000805160206120af833981519152805460ff81161561176e5760ff191690557f5db9ee0a495bf2e6ff9c91a7834c1ba4fdd244a5e8aa4e537bd38aeae4b073aa6020604051338152a1005b604051638dfc202b60e01b8152600490fd5b50611789611f91565b611722565b346101c3576020806003193601126101c3576001600160a01b036117b0611bdb565b16600052600481526040600020805491600192600183015492600281019260ff60046003840154930154169284546117e781611eaa565b906117f56040519283611c7a565b808252888483018098600052856000206000915b84831061188a5750505050506040519660a088019288528388015260a060408801525180915260c086019160c08260051b88010195926000905b83821061185f5788808989896060840152151560808301520390f35b9091929396838061187b8c9360bf198d82030186528b51611bf1565b99019201920190939291611843565b8388819261189a859b9a9b611d27565b815201920192019190969596611809565b346101c35760003660031901126101c35760206118c6611e88565b604051908152f35b346101c35760003660031901126101c3573360005260076020526040600020600181015415801561194c575b801561193b575b61101e57600301805460ff19166001179055337f8154b6c5e1fc90d44b49808ef93f9739148d0821411890f8cd684385e24b9f1e600080a2005b5060ff600382015460081c16611901565b5060ff6003820154166118fa565b346101c35760203660031901126101c3576001600160a01b0361197b611bdb565b1660005260016020526020604060002054604051908152f35b346101c3576020806003193601126101c3576001600160401b036004358181116101c3576119c6903690600401611bae565b906119cf611f66565b33600052600084526119e5604060002054611ced565b15923360005260008552604060002090831161099f57611a0983610eb68354611ced565b6000601f8411600114611b345793611a759291611a4c858060008051602061208f83398151915298600091611b2957508160011b916000199060031b1c19161790565b90555b336000526001865242604060002055611a83575b60405192604084526040840191611e67565b9242908201528033930390a2005b611a8e600254611e58565b806002556040518181527fe29d35093005f4d575e1003753426b57a7f64378ba73332eef9c6ccc2b8decd6873392a2856101f482101580611b19575b611ad6575b5050611a63565b6003805460ff60a01b1916600160a01b1790556040519182527f8bb6efd782a840326f30b67cfd80c722b717fa4aa858c570971781a1b4ea1d2491a18585611acf565b5060ff60035460a01c1615611aca565b90508501358a610eed565b601f1984169082600052866000209160005b88828210611b9857505091611a759493918660008051602061208f833981519152989410611b7e575b5050600185811b019055611a4f565b840135600019600388901b60f8161c191690558780611b6f565b6001849582939589013581550194019201611b46565b9181601f840112156101c3578235916001600160401b0383116101c357602083818601950101116101c357565b600435906001600160a01b03821682036101c357565b919082519283825260005b848110611c1d575050826000602080949584010152601f8019910116010190565b602081830181015184830182015201611bfc565b8054821015611c495760005260206000200190600090565b634e487b7160e01b600052603260045260246000fd5b604081019081106001600160401b0382111761099f57604052565b90601f801991011681019081106001600160401b0382111761099f57604052565b6001600160401b03811161099f57601f01601f191660200190565b929192611cc282611c9b565b91611cd06040519384611c7a565b8294818452818301116101c3578281602093846000960137010152565b90600182811c92168015611d1d575b6020831014611d0757565b634e487b7160e01b600052602260045260246000fd5b91607f1691611cfc565b90604051918260008254611d3a81611ced565b90818452602094600191600181169081600014611daa5750600114611d6b575b505050611d6992500383611c7a565b565b600090815285812095935091905b818310611d92575050611d699350820101388080611d5a565b85548884018501529485019487945091830191611d79565b92505050611d6994925060ff191682840152151560051b820101388080611d5a565b9181601f840112156101c3578235916001600160401b0383116101c3576020808501948460051b0101116101c357565b818110611e07575050565b60008155600101611dfc565b9190601f8111611e2257505050565b611d69926000526020600020906020601f840160051c83019310611e4e575b601f0160051c0190611dfc565b9091508190611e41565b60001981146104195760010190565b908060209392818452848401376000828201840152601f01601f1916010190565b6002546101f49081811015611ea35781039081116104195790565b5050600090565b6001600160401b03811161099f5760051b60200190565b9190820180921161041957565b9190811015611c495760051b0190565b356001600160a01b03811681036101c35790565b6001600160a01b03908116908115611f4d5760008051602061206f83398151915280546001600160a01b031981168417909155167f8be0079c531659141344cd1fd0a4f28419497f9722a3daafe3b4186f6b6457e0600080a3565b604051631e4fbdf760e01b815260006004820152602490fd5b60ff6000805160206120af8339815191525416611f7f57565b60405163d93c066560e01b8152600490fd5b60008051602061206f833981519152546001600160a01b03163303611fb257565b60405163118cdaa760e01b8152336004820152602490fd5b60ff7ff0c57e16840df040f15088dc2f81fe391c3923bec73e23a9662efc9c229c6a005460401c1615611ff957565b604051631afcd79f60e31b8152600490fd5b90612032575080511561202057602081519101fd5b60405163d6bda27560e01b8152600490fd5b81511580612065575b612043575090565b604051639996b31560e01b81526001600160a01b039091166004820152602490fd5b50803b1561203b56fe9016d09d72d40fdae2fd8ceac6b6234c7706214fd39c1cd1e609a0528c199300dcb94c0b2c025b0736b4b62b1c595f2ca7ad4c711eada6026d477e87de9cca08cd5ed15c6e187e77e9aee88184c21f4f2182ab5827cb3b7e07fbedcd63f03300a264697066735822122075af43983fca9414fc4c085303049ac72f4db4d99ad6962d0d6d089664972cee64736f6c63430008180033","opcodes":"PUSH1 0xA0 DUP1 PUSH1 0x40 MSTORE CALLVALUE PUSH2 0xCC JUMPI ADDRESS PUSH1 0x80 MSTORE PUSH32 0xF0C57E16840DF040F15088DC2F81FE391C3923BEC73E23A9662EFC9C229C6A00 SWAP1 DUP2 SLOAD SWAP1 PUSH1 0xFF DUP3 PUSH1 0x40 SHR AND PUSH2 0xBD JUMPI POP PUSH1 0x1 PUSH1 0x1 PUSH1 0x40 SHL SUB PUSH1 0x2 PUSH1 0x1 PUSH1 0x40 SHL SUB NOT DUP3 DUP3 AND ADD PUSH2 0x78 JUMPI JUMPDEST PUSH1 0x40 MLOAD PUSH2 0x2104 SWAP1 DUP2 PUSH2 0xD2 DUP3 CODECOPY PUSH1 0x80 MLOAD DUP2 DUP2 DUP2 PUSH2 0x1399 ADD MSTORE PUSH2 0x1452 ADD MSTORE RETURN JUMPDEST PUSH1 0x1 PUSH1 0x1 PUSH1 0x40 SHL SUB NOT SWAP1 SWAP2 AND DUP2 OR SWAP1 SWAP2 SSTORE PUSH1 0x40 MLOAD SWAP1 DUP2 MSTORE PUSH32 0xC7F505B2F371AE2175EE4913F4499E1F2633A7B5936321EED1CDAEB6115181D2 SWAP1 PUSH1 0x20 SWAP1 LOG1 CODESIZE DUP1 DUP1 PUSH2 0x59 JUMP JUMPDEST PUSH4 0xF92EE8A9 PUSH1 0xE0 SHL DUP2 MSTORE PUSH1 0x4 SWAP1 REVERT JUMPDEST PUSH1 0x0 DUP1 REVERT INVALID PUSH1 0x80 PUSH1 0x40 MSTORE PUSH1 0x4 CALLDATASIZE LT ISZERO PUSH2 0x12 JUMPI PUSH1 0x0 DUP1 REVERT JUMPDEST PUSH1 0x0 CALLDATALOAD PUSH1 0xE0 SHR DUP1 PUSH3 0x9299E3 EQ PUSH2 0x1994 JUMPI DUP1 PUSH4 0xA6F93E6 EQ PUSH2 0x195A JUMPI DUP1 PUSH4 0xBA234D6 EQ PUSH2 0x18CE JUMPI DUP1 PUSH4 0xF53A470 EQ PUSH2 0xD22 JUMPI DUP1 PUSH4 0x15740B08 EQ PUSH2 0x18AB JUMPI DUP1 PUSH4 0x2788BBDA EQ PUSH2 0x178E JUMPI DUP1 PUSH4 0x3F4BA83A EQ PUSH2 0x16F0 JUMPI DUP1 PUSH4 0x421F9515 EQ PUSH2 0x1280 JUMPI DUP1 PUSH4 0x422C1D37 EQ PUSH2 0x16D4 JUMPI DUP1 PUSH4 0x4783C35B EQ PUSH2 0x16AB JUMPI DUP1 PUSH4 0x47D05BF8 EQ PUSH2 0x1652 JUMPI DUP1 PUSH4 0x4F1EF286 EQ PUSH2 0x1403 JUMPI DUP1 PUSH4 0x52D1902D EQ PUSH2 0x1386 JUMPI DUP1 PUSH4 0x54FD4D50 EQ PUSH2 0x1340 JUMPI DUP1 PUSH4 0x5C975ABB EQ PUSH2 0x1310 JUMPI DUP1 PUSH4 0x715018A6 EQ PUSH2 0x12A6 JUMPI DUP1 PUSH4 0x7241784C EQ PUSH2 0x1280 JUMPI DUP1 PUSH4 0x7C8E804E EQ PUSH2 0x121F JUMPI DUP1 PUSH4 0x8456CB59 EQ PUSH2 0x1191 JUMPI DUP1 PUSH4 0x8DA5CB5B EQ PUSH2 0x115B JUMPI DUP1 PUSH4 0x8F2A9099 EQ PUSH2 0x104F JUMPI DUP1 PUSH4 0x95E7DDD4 EQ PUSH2 0xDBA JUMPI DUP1 PUSH4 0xAD3CB1CC EQ PUSH2 0xD74 JUMPI DUP1 PUSH4 0xBBE15627 EQ PUSH2 0xD22 JUMPI DUP1 PUSH4 0xBFF1F9E1 EQ PUSH2 0xD04 JUMPI DUP1 PUSH4 0xC4D66DE8 EQ PUSH2 0xB9D JUMPI DUP1 PUSH4 0xC4E731A0 EQ PUSH2 0x66F JUMPI DUP1 PUSH4 0xC81C083E EQ PUSH2 0x653 JUMPI DUP1 PUSH4 0xC859C10B EQ PUSH2 0x636 JUMPI DUP1 PUSH4 0xD4EE9734 EQ PUSH2 0x5DC JUMPI DUP1 PUSH4 0xD5CE9AAD EQ PUSH2 0x42F JUMPI DUP1 PUSH4 0xED1D0D13 EQ PUSH2 0x35D JUMPI DUP1 PUSH4 0xF18858AB EQ PUSH2 0x2AA JUMPI DUP1 PUSH4 0xF2FDE38B EQ PUSH2 0x27F JUMPI DUP1 PUSH4 0xF3283FBA EQ PUSH2 0x1C8 JUMPI PUSH4 0xF91B0432 EQ PUSH2 0x1A7 JUMPI PUSH1 0x0 DUP1 REVERT JUMPDEST CALLVALUE PUSH2 0x1C3 JUMPI PUSH1 0x0 CALLDATASIZE PUSH1 0x3 NOT ADD SLT PUSH2 0x1C3 JUMPI PUSH1 0x20 PUSH1 0x40 MLOAD PUSH1 0x3 DUP2 MSTORE RETURN JUMPDEST PUSH1 0x0 DUP1 REVERT JUMPDEST CALLVALUE PUSH2 0x1C3 JUMPI PUSH1 0x20 CALLDATASIZE PUSH1 0x3 NOT ADD SLT PUSH2 0x1C3 JUMPI PUSH2 0x1E1 PUSH2 0x1BDB JUMP JUMPDEST PUSH1 0x3 SLOAD SWAP1 PUSH1 0xFF DUP3 PUSH1 0xA0 SHR AND PUSH1 0x0 EQ PUSH2 0x272 JUMPI PUSH1 0x1 PUSH1 0x1 PUSH1 0xA0 SHL SUB DUP3 AND CALLER SUB PUSH2 0x260 JUMPI JUMPDEST PUSH1 0x1 PUSH1 0x1 PUSH1 0xA0 SHL SUB SWAP1 DUP2 AND SWAP2 DUP3 ISZERO PUSH2 0x24E JUMPI PUSH1 0x1 PUSH1 0x1 PUSH1 0xA0 SHL SUB NOT DUP2 AND DUP4 OR PUSH1 0x3 SSTORE AND PUSH32 0x5F90D712A0AF15F5A6F562235036D7264213DE74A0DC9698581DAA47C52B79D3 PUSH1 0x0 DUP1 LOG3 STOP JUMPDEST PUSH1 0x40 MLOAD PUSH4 0x1F78855 PUSH1 0xE2 SHL DUP2 MSTORE PUSH1 0x4 SWAP1 REVERT JUMPDEST PUSH1 0x40 MLOAD PUSH4 0xC12F2A81 PUSH1 0xE0 SHL DUP2 MSTORE PUSH1 0x4 SWAP1 REVERT JUMPDEST PUSH2 0x27A PUSH2 0x1F91 JUMP JUMPDEST PUSH2 0x204 JUMP JUMPDEST CALLVALUE PUSH2 0x1C3 JUMPI PUSH1 0x20 CALLDATASIZE PUSH1 0x3 NOT ADD SLT PUSH2 0x1C3 JUMPI PUSH2 0x2A8 PUSH2 0x29B PUSH2 0x1BDB JUMP JUMPDEST PUSH2 0x2A3 PUSH2 0x1F91 JUMP JUMPDEST PUSH2 0x1EF2 JUMP JUMPDEST STOP JUMPDEST CALLVALUE PUSH2 0x1C3 JUMPI PUSH1 0x20 DUP1 PUSH1 0x3 NOT CALLDATASIZE ADD SLT PUSH2 0x1C3 JUMPI PUSH1 0x1 PUSH1 0x1 PUSH1 0xA0 SHL SUB SWAP1 DUP2 PUSH2 0x2CE PUSH2 0x1BDB JUMP JUMPDEST AND PUSH1 0x0 MSTORE PUSH1 0x5 DUP2 MSTORE PUSH1 0x40 PUSH1 0x0 KECCAK256 PUSH1 0x40 MLOAD SWAP2 DUP3 DUP2 DUP4 SLOAD SWAP2 DUP3 DUP2 MSTORE ADD SWAP1 DUP2 SWAP4 PUSH1 0x0 MSTORE DUP3 PUSH1 0x0 KECCAK256 SWAP1 PUSH1 0x0 JUMPDEST DUP2 DUP2 LT PUSH2 0x347 JUMPI POP POP POP DUP4 PUSH2 0x30C SWAP2 SUB DUP5 PUSH2 0x1C7A JUMP JUMPDEST PUSH1 0x40 MLOAD SWAP3 DUP2 DUP5 ADD SWAP1 DUP3 DUP6 MSTORE MLOAD DUP1 SWAP2 MSTORE PUSH1 0x40 DUP5 ADD SWAP3 SWAP2 PUSH1 0x0 JUMPDEST DUP3 DUP2 LT PUSH2 0x331 JUMPI DUP6 DUP6 SUB DUP7 RETURN JUMPDEST DUP4 MLOAD DUP8 AND DUP6 MSTORE SWAP4 DUP2 ADD SWAP4 SWAP3 DUP2 ADD SWAP3 PUSH1 0x1 ADD PUSH2 0x324 JUMP JUMPDEST DUP3 SLOAD DUP9 AND DUP5 MSTORE SWAP3 DUP5 ADD SWAP3 PUSH1 0x1 SWAP3 DUP4 ADD SWAP3 ADD PUSH2 0x2F6 JUMP JUMPDEST CALLVALUE PUSH2 0x1C3 JUMPI PUSH1 0x20 CALLDATASIZE PUSH1 0x3 NOT ADD SLT PUSH2 0x1C3 JUMPI PUSH1 0x1 PUSH1 0x1 PUSH1 0xA0 SHL SUB DUP1 PUSH2 0x37F PUSH2 0x1BDB JUMP JUMPDEST AND PUSH1 0x0 MSTORE PUSH1 0x7 PUSH1 0x20 MSTORE PUSH1 0x40 PUSH1 0x0 KECCAK256 PUSH1 0x4 PUSH1 0x20 MSTORE PUSH1 0x40 PUSH1 0x0 KECCAK256 SWAP2 PUSH1 0x0 SWAP1 PUSH1 0x1 DUP4 ADD SLOAD SWAP4 DUP5 PUSH2 0x3E9 JUMPI JUMPDEST POP PUSH1 0xC0 SWAP4 PUSH1 0xFF SWAP2 DUP5 SLOAD AND SWAP4 PUSH1 0x3 PUSH1 0x2 DUP3 ADD SLOAD SWAP2 ADD SLOAD SWAP2 PUSH1 0x40 MLOAD SWAP6 DUP7 MSTORE PUSH1 0x20 DUP7 ADD MSTORE PUSH1 0x40 DUP6 ADD MSTORE DUP2 DUP2 AND ISZERO ISZERO PUSH1 0x60 DUP6 ADD MSTORE PUSH1 0x8 SHR AND ISZERO ISZERO PUSH1 0x80 DUP4 ADD MSTORE PUSH1 0xA0 DUP3 ADD MSTORE RETURN JUMPDEST SWAP1 SWAP2 POP SLOAD PUSH2 0xE10 SWAP1 DUP2 DUP2 MUL SWAP2 DUP2 DUP4 DIV EQ SWAP1 ISZERO OR ISZERO PUSH2 0x419 JUMPI DUP4 PUSH2 0x410 PUSH1 0xFF SWAP3 PUSH1 0xC0 SWAP7 PUSH2 0x1EC1 JUMP JUMPDEST SWAP3 SWAP2 POP SWAP4 PUSH2 0x3A7 JUMP JUMPDEST PUSH4 0x4E487B71 PUSH1 0xE0 SHL PUSH1 0x0 MSTORE PUSH1 0x11 PUSH1 0x4 MSTORE PUSH1 0x24 PUSH1 0x0 REVERT JUMPDEST CALLVALUE PUSH2 0x1C3 JUMPI PUSH1 0x20 DUP1 PUSH1 0x3 NOT CALLDATASIZE ADD SLT PUSH2 0x1C3 JUMPI PUSH2 0x449 PUSH2 0x1BDB JUMP JUMPDEST PUSH2 0x451 PUSH2 0x1F66 JUMP JUMPDEST PUSH1 0x1 PUSH1 0x1 PUSH1 0xA0 SHL SUB AND PUSH1 0x0 DUP2 DUP2 MSTORE PUSH1 0x6 DUP4 MSTORE PUSH1 0x40 DUP1 DUP3 KECCAK256 CALLER DUP4 MSTORE DUP5 MSTORE SWAP1 KECCAK256 SLOAD PUSH1 0xFF AND ISZERO PUSH2 0x5CA JUMPI DUP1 PUSH1 0x0 MSTORE PUSH1 0x4 DUP3 MSTORE PUSH1 0xFF PUSH1 0x4 PUSH1 0x40 PUSH1 0x0 KECCAK256 ADD SLOAD AND ISZERO PUSH2 0x5B8 JUMPI DUP1 PUSH1 0x0 MSTORE PUSH1 0x7 DUP3 MSTORE PUSH1 0x40 PUSH1 0x0 KECCAK256 PUSH1 0x1 DUP2 ADD SWAP1 DUP2 SLOAD ISZERO ISZERO DUP1 PUSH2 0x5A9 JUMPI JUMPDEST DUP1 PUSH2 0x597 JUMPI JUMPDEST PUSH2 0x585 JUMPI PUSH1 0x4 SWAP2 CALLER PUSH12 0xFFFFFFFFFFFFFFFFFFFFFFFF PUSH1 0xA0 SHL DUP4 SLOAD AND OR DUP3 SSTORE TIMESTAMP SWAP1 SSTORE PUSH1 0x1 PUSH1 0x2 DUP3 ADD SSTORE PUSH1 0x3 DUP2 ADD PUSH2 0xFFFF NOT DUP2 SLOAD AND SWAP1 SSTORE CALLER PUSH1 0x0 MSTORE ADD DUP3 MSTORE PUSH1 0x40 PUSH1 0x0 KECCAK256 PUSH1 0x1 PUSH1 0xFF NOT DUP3 SLOAD AND OR SWAP1 SSTORE DUP1 PUSH1 0x0 MSTORE PUSH1 0x4 DUP3 MSTORE PUSH1 0x40 PUSH1 0x0 KECCAK256 SLOAD PUSH2 0xE10 SWAP1 DUP2 DUP2 MUL SWAP2 DUP2 DUP4 DIV EQ SWAP1 ISZERO OR ISZERO PUSH2 0x419 JUMPI PUSH2 0x52B SWAP1 TIMESTAMP PUSH2 0x1EC1 JUMP JUMPDEST PUSH1 0x40 MLOAD SWAP1 DUP2 MSTORE DUP2 PUSH32 0xE290EA2CC3CFEB5114F992DC8BE9E503DE30042C13B9298644A2679B09E17A04 DUP5 CALLER SWAP4 LOG3 PUSH32 0x9BA9AAE59B148FB52366BDF0FA0F92591643C187095C73C0098C75687829D84 PUSH1 0x40 MLOAD SWAP3 PUSH1 0x1 DUP5 MSTORE CALLER SWAP4 LOG3 STOP JUMPDEST PUSH1 0x40 MLOAD PUSH4 0x1C730B73 PUSH1 0xE3 SHL DUP2 MSTORE PUSH1 0x4 SWAP1 REVERT JUMPDEST POP PUSH1 0xFF PUSH1 0x3 DUP3 ADD SLOAD PUSH1 0x8 SHR AND ISZERO PUSH2 0x4B3 JUMP JUMPDEST POP PUSH1 0xFF PUSH1 0x3 DUP3 ADD SLOAD AND ISZERO PUSH2 0x4AD JUMP JUMPDEST PUSH1 0x40 MLOAD PUSH4 0x1805D357 PUSH1 0xE1 SHL DUP2 MSTORE PUSH1 0x4 SWAP1 REVERT JUMPDEST PUSH1 0x40 MLOAD PUSH4 0x475D03F7 PUSH1 0xE0 SHL DUP2 MSTORE PUSH1 0x4 SWAP1 REVERT JUMPDEST CALLVALUE PUSH2 0x1C3 JUMPI PUSH1 0x40 CALLDATASIZE PUSH1 0x3 NOT ADD SLT PUSH2 0x1C3 JUMPI PUSH2 0x5F5 PUSH2 0x1BDB JUMP JUMPDEST PUSH1 0x1 PUSH1 0x1 PUSH1 0xA0 SHL SUB PUSH1 0x24 CALLDATALOAD DUP2 DUP2 AND SWAP3 SWAP1 DUP4 SWAP1 SUB PUSH2 0x1C3 JUMPI AND PUSH1 0x0 MSTORE PUSH1 0x6 PUSH1 0x20 MSTORE PUSH1 0x40 PUSH1 0x0 KECCAK256 SWAP1 PUSH1 0x0 MSTORE PUSH1 0x20 MSTORE PUSH1 0x20 PUSH1 0xFF PUSH1 0x40 PUSH1 0x0 KECCAK256 SLOAD AND PUSH1 0x40 MLOAD SWAP1 ISZERO ISZERO DUP2 MSTORE RETURN JUMPDEST CALLVALUE PUSH2 0x1C3 JUMPI PUSH1 0x0 CALLDATASIZE PUSH1 0x3 NOT ADD SLT PUSH2 0x1C3 JUMPI PUSH1 0x20 PUSH1 0x40 MLOAD PUSH2 0x1F4 DUP2 MSTORE RETURN JUMPDEST CALLVALUE PUSH2 0x1C3 JUMPI PUSH1 0x0 CALLDATASIZE PUSH1 0x3 NOT ADD SLT PUSH2 0x1C3 JUMPI PUSH1 0x20 PUSH1 0x40 MLOAD PUSH1 0x18 DUP2 MSTORE RETURN JUMPDEST CALLVALUE PUSH2 0x1C3 JUMPI PUSH1 0xA0 CALLDATASIZE PUSH1 0x3 NOT ADD SLT PUSH2 0x1C3 JUMPI PUSH1 0x4 CALLDATALOAD PUSH1 0x1 PUSH1 0x1 PUSH1 0x40 SHL SUB DUP2 GT PUSH2 0x1C3 JUMPI PUSH2 0x69F SWAP1 CALLDATASIZE SWAP1 PUSH1 0x4 ADD PUSH2 0x1DCC JUMP JUMPDEST SWAP1 PUSH1 0x64 CALLDATALOAD PUSH1 0x1 PUSH1 0x1 PUSH1 0x40 SHL SUB DUP2 GT PUSH2 0x1C3 JUMPI PUSH2 0x6BF SWAP1 CALLDATASIZE SWAP1 PUSH1 0x4 ADD PUSH2 0x1DCC JUMP JUMPDEST SWAP1 PUSH2 0x6C8 PUSH2 0x1F66 JUMP JUMPDEST PUSH1 0x3 DUP5 LT DUP1 ISZERO PUSH2 0xB93 JUMPI JUMPDEST PUSH2 0xB52 JUMPI PUSH1 0x2 PUSH1 0x24 CALLDATALOAD LT DUP1 ISZERO PUSH2 0xB88 JUMPI JUMPDEST PUSH2 0xB76 JUMPI PUSH1 0x18 PUSH1 0x44 CALLDATALOAD LT PUSH2 0xB64 JUMPI DUP4 DUP3 SUB PUSH2 0xB52 JUMPI CALLER PUSH1 0x0 MSTORE PUSH1 0x5 PUSH1 0x20 MSTORE PUSH1 0x40 PUSH1 0x0 KECCAK256 SWAP2 PUSH1 0x0 JUMPDEST DUP4 SLOAD DUP2 LT ISZERO PUSH2 0x756 JUMPI PUSH1 0x1 SWAP1 CALLER PUSH1 0x0 MSTORE PUSH1 0x6 PUSH1 0x20 MSTORE PUSH1 0x40 PUSH1 0x0 KECCAK256 PUSH2 0x72F DUP3 DUP8 PUSH2 0x1C31 JUMP JUMPDEST DUP5 DUP1 PUSH1 0xA0 SHL SUB SWAP2 SLOAD SWAP1 PUSH1 0x3 SHL SHR AND PUSH1 0x0 MSTORE PUSH1 0x20 MSTORE PUSH1 0x40 PUSH1 0x0 KECCAK256 PUSH1 0xFF NOT DUP2 SLOAD AND SWAP1 SSTORE ADD PUSH2 0x70B JUMP JUMPDEST POP SWAP2 POP SWAP2 CALLER PUSH1 0x0 MSTORE PUSH1 0x5 PUSH1 0x20 MSTORE PUSH1 0x40 PUSH1 0x0 KECCAK256 DUP1 SLOAD PUSH1 0x0 DUP3 SSTORE DUP1 PUSH2 0xB36 JUMPI JUMPDEST POP POP PUSH1 0x0 JUMPDEST DUP5 DUP2 LT PUSH2 0xA6A JUMPI POP POP PUSH1 0x40 MLOAD SWAP2 PUSH1 0xA0 DUP4 ADD DUP4 DUP2 LT PUSH1 0x1 PUSH1 0x1 PUSH1 0x40 SHL SUB DUP3 GT OR PUSH2 0x99F JUMPI PUSH1 0x40 MSTORE PUSH1 0x44 CALLDATALOAD DUP4 MSTORE PUSH1 0x24 CALLDATALOAD PUSH1 0x20 DUP5 ADD MSTORE PUSH2 0x7B5 DUP3 PUSH2 0x1EAA JUMP JUMPDEST SWAP2 PUSH2 0x7C3 PUSH1 0x40 MLOAD SWAP4 DUP5 PUSH2 0x1C7A JUMP JUMPDEST DUP1 DUP4 MSTORE PUSH1 0x20 DUP4 ADD SWAP2 CALLDATASIZE DUP3 PUSH1 0x5 SHL DUP3 ADD GT PUSH2 0x1C3 JUMPI DUP1 SWAP3 JUMPDEST DUP3 PUSH1 0x5 SHL DUP3 ADD DUP5 LT PUSH2 0xA2E JUMPI POP POP POP POP PUSH1 0x40 DUP3 ADD SWAP1 DUP2 MSTORE PUSH1 0x84 CALLDATALOAD PUSH1 0x60 DUP4 ADD MSTORE PUSH1 0x1 PUSH1 0x80 DUP4 ADD MSTORE CALLER PUSH1 0x0 MSTORE PUSH1 0x4 PUSH1 0x20 MSTORE PUSH1 0x40 PUSH1 0x0 KECCAK256 SWAP1 DUP3 MLOAD DUP3 SSTORE PUSH1 0x20 DUP4 ADD MLOAD PUSH1 0x1 DUP4 ADD SSTORE MLOAD DUP1 MLOAD SWAP1 PUSH1 0x1 PUSH1 0x40 SHL DUP3 GT PUSH2 0x99F JUMPI PUSH1 0x2 DUP4 ADD SLOAD DUP3 PUSH1 0x2 DUP6 ADD SSTORE DUP1 DUP4 LT PUSH2 0x9B5 JUMPI JUMPDEST POP PUSH1 0x20 ADD SWAP1 PUSH1 0x2 DUP4 ADD PUSH1 0x0 MSTORE PUSH1 0x20 PUSH1 0x0 KECCAK256 SWAP2 PUSH1 0x0 SWAP1 JUMPDEST DUP3 DUP3 LT PUSH2 0x8B5 JUMPI DUP7 DUP7 PUSH1 0x80 PUSH1 0x4 DUP9 PUSH1 0x60 DUP5 ADD MLOAD PUSH1 0x3 DUP3 ADD SSTORE ADD SWAP2 ADD MLOAD ISZERO ISZERO PUSH1 0xFF DUP1 NOT DUP4 SLOAD AND SWAP2 AND OR SWAP1 SSTORE PUSH1 0x40 MLOAD SWAP1 DUP2 MSTORE PUSH1 0x24 CALLDATALOAD PUSH1 0x20 DUP3 ADD MSTORE PUSH32 0x9BA32A4BFB6D1027E66BD016E66B9B205EE6DB57E5089163BC64390665CE0AC7 PUSH1 0x40 CALLER SWAP3 LOG2 STOP JUMPDEST DUP1 MLOAD DUP1 MLOAD SWAP1 PUSH1 0x1 PUSH1 0x1 PUSH1 0x40 SHL SUB DUP3 GT PUSH2 0x99F JUMPI PUSH2 0x8DC DUP3 PUSH2 0x8D6 DUP9 SLOAD PUSH2 0x1CED JUMP JUMPDEST DUP9 PUSH2 0x1E13 JUMP JUMPDEST PUSH1 0x20 SWAP1 PUSH1 0x1F DUP4 GT PUSH1 0x1 EQ PUSH2 0x92F JUMPI SWAP3 PUSH2 0x915 DUP4 PUSH1 0x1 SWAP6 SWAP5 PUSH1 0x20 SWAP5 DUP8 SWAP7 PUSH1 0x0 SWAP3 PUSH2 0x924 JUMPI JUMPDEST POP POP DUP2 PUSH1 0x1 SHL SWAP2 PUSH1 0x0 NOT SWAP1 PUSH1 0x3 SHL SHR NOT AND OR SWAP1 JUMP JUMPDEST DUP8 SSTORE JUMPDEST ADD SWAP5 ADD SWAP2 ADD SWAP1 SWAP3 PUSH2 0x855 JUMP JUMPDEST ADD MLOAD SWAP1 POP DUP14 DUP1 PUSH2 0x900 JUMP JUMPDEST SWAP1 DUP7 PUSH1 0x0 MSTORE PUSH1 0x20 PUSH1 0x0 KECCAK256 SWAP2 PUSH1 0x0 JUMPDEST PUSH1 0x1F NOT DUP6 AND DUP2 LT PUSH2 0x987 JUMPI POP DUP4 PUSH1 0x20 SWAP4 PUSH1 0x1 SWAP7 SWAP4 DUP8 SWAP7 SWAP4 DUP8 SWAP5 PUSH1 0x1F NOT DUP2 AND LT PUSH2 0x96E JUMPI JUMPDEST POP POP POP DUP2 SHL ADD DUP8 SSTORE PUSH2 0x918 JUMP JUMPDEST ADD MLOAD PUSH1 0x0 NOT PUSH1 0xF8 DUP5 PUSH1 0x3 SHL AND SHR NOT AND SWAP1 SSTORE DUP13 DUP1 DUP1 PUSH2 0x961 JUMP JUMPDEST SWAP2 SWAP3 PUSH1 0x20 PUSH1 0x1 DUP2 SWAP3 DUP7 DUP6 ADD MLOAD DUP2 SSTORE ADD SWAP5 ADD SWAP3 ADD PUSH2 0x93D JUMP JUMPDEST PUSH4 0x4E487B71 PUSH1 0xE0 SHL PUSH1 0x0 MSTORE PUSH1 0x41 PUSH1 0x4 MSTORE PUSH1 0x24 PUSH1 0x0 REVERT JUMPDEST PUSH1 0x2 DUP5 ADD PUSH1 0x0 MSTORE PUSH1 0x20 PUSH1 0x0 KECCAK256 SWAP1 DUP4 DUP3 ADD JUMPDEST DUP2 DUP4 ADD DUP2 LT PUSH2 0x9D6 JUMPI POP POP PUSH2 0x83F JUMP JUMPDEST DUP1 PUSH2 0x9E3 PUSH1 0x1 SWAP3 SLOAD PUSH2 0x1CED JUMP JUMPDEST DUP1 PUSH2 0x9F0 JUMPI JUMPDEST POP ADD PUSH2 0x9C6 JUMP JUMPDEST PUSH1 0x1F SWAP1 DUP2 DUP2 GT DUP5 EQ PUSH2 0xA09 JUMPI POP POP PUSH1 0x0 DUP2 SSTORE JUMPDEST DUP10 PUSH2 0x9E9 JUMP JUMPDEST PUSH2 0xA25 PUSH1 0x0 SWAP3 DUP5 DUP5 MSTORE PUSH1 0x20 DUP5 KECCAK256 SWAP3 ADD PUSH1 0x5 SHR DUP3 ADD DUP6 DUP4 ADD PUSH2 0x1DFC JUMP JUMPDEST DUP2 DUP4 SSTORE SSTORE PUSH2 0xA03 JUMP JUMPDEST DUP4 CALLDATALOAD PUSH1 0x1 PUSH1 0x1 PUSH1 0x40 SHL SUB DUP2 GT PUSH2 0x1C3 JUMPI DUP3 ADD CALLDATASIZE PUSH1 0x1F DUP3 ADD SLT ISZERO PUSH2 0x1C3 JUMPI PUSH1 0x20 SWAP2 PUSH2 0xA5F DUP4 SWAP3 CALLDATASIZE SWAP1 DUP5 DUP2 CALLDATALOAD SWAP2 ADD PUSH2 0x1CB6 JUMP JUMPDEST DUP2 MSTORE ADD SWAP4 ADD SWAP3 PUSH2 0x7DA JUMP JUMPDEST CALLER PUSH1 0x0 MSTORE PUSH1 0x5 PUSH1 0x20 MSTORE PUSH1 0x40 PUSH1 0x0 KECCAK256 SWAP1 PUSH2 0xA8C PUSH2 0xA87 DUP3 DUP9 DUP7 PUSH2 0x1ECE JUMP JUMPDEST PUSH2 0x1EDE JUMP JUMPDEST DUP3 SLOAD SWAP3 PUSH1 0x1 PUSH1 0x40 SHL DUP5 LT ISZERO PUSH2 0x99F JUMPI PUSH2 0xAAD PUSH1 0x1 SWAP5 DUP6 SWAP3 DUP4 DUP3 ADD DUP2 SSTORE PUSH2 0x1C31 JUMP JUMPDEST SWAP3 DUP6 DUP1 PUSH1 0xA0 SHL SUB SWAP4 DUP5 DUP1 DUP5 SLOAD SWAP3 PUSH1 0x3 SHL SWAP4 AND DUP4 SHL SWAP3 SHL NOT AND OR SWAP1 SSTORE CALLER PUSH1 0x0 MSTORE PUSH1 0x6 PUSH1 0x20 MSTORE PUSH1 0x40 PUSH1 0x0 KECCAK256 DUP3 PUSH2 0xAE5 PUSH2 0xA87 DUP7 DUP13 DUP11 PUSH2 0x1ECE JUMP JUMPDEST AND PUSH1 0x0 MSTORE PUSH1 0x20 MSTORE PUSH1 0x40 PUSH1 0x0 KECCAK256 SWAP1 PUSH1 0xFF NOT DUP3 SLOAD AND OR SWAP1 SSTORE PUSH2 0xB09 PUSH2 0xA87 DUP4 DUP10 DUP8 PUSH2 0x1ECE JUMP JUMPDEST AND CALLER PUSH32 0xBC3292102FA77E083913064B282926717CDFAEDE4D35F553D66366C0A3DA755A PUSH1 0x0 DUP1 LOG3 ADD PUSH2 0x779 JUMP JUMPDEST PUSH2 0xB4B SWAP2 PUSH1 0x0 MSTORE PUSH1 0x20 PUSH1 0x0 KECCAK256 SWAP1 DUP2 ADD SWAP1 PUSH2 0x1DFC JUMP JUMPDEST DUP5 DUP1 PUSH2 0x774 JUMP JUMPDEST PUSH1 0x40 MLOAD PUSH4 0x45D0F355 PUSH1 0xE0 SHL DUP2 MSTORE PUSH1 0x4 SWAP1 REVERT JUMPDEST PUSH1 0x40 MLOAD PUSH4 0xE77D7D57 PUSH1 0xE0 SHL DUP2 MSTORE PUSH1 0x4 SWAP1 REVERT JUMPDEST PUSH1 0x40 MLOAD PUSH4 0xAABD5A09 PUSH1 0xE0 SHL DUP2 MSTORE PUSH1 0x4 SWAP1 REVERT JUMPDEST POP DUP4 PUSH1 0x24 CALLDATALOAD GT PUSH2 0x6E4 JUMP JUMPDEST POP PUSH1 0x5 DUP5 GT PUSH2 0x6D3 JUMP JUMPDEST CALLVALUE PUSH2 0x1C3 JUMPI PUSH1 0x20 CALLDATASIZE PUSH1 0x3 NOT ADD SLT PUSH2 0x1C3 JUMPI PUSH2 0xBB6 PUSH2 0x1BDB JUMP JUMPDEST PUSH32 0xF0C57E16840DF040F15088DC2F81FE391C3923BEC73E23A9662EFC9C229C6A00 SWAP1 DUP2 SLOAD SWAP1 PUSH1 0xFF DUP3 PUSH1 0x40 SHR AND ISZERO SWAP2 PUSH1 0x1 PUSH1 0x1 PUSH1 0x40 SHL SUB DUP2 AND DUP1 ISZERO SWAP1 DUP2 PUSH2 0xCFC JUMPI JUMPDEST PUSH1 0x1 EQ SWAP1 DUP2 PUSH2 0xCF2 JUMPI JUMPDEST ISZERO SWAP1 DUP2 PUSH2 0xCE9 JUMPI JUMPDEST POP PUSH2 0xCD7 JUMPI PUSH8 0xFFFFFFFFFFFFFFFF NOT DUP2 AND PUSH1 0x1 OR DUP5 SSTORE DUP3 PUSH2 0xCB8 JUMPI JUMPDEST POP PUSH2 0xC2E PUSH2 0x1FCA JUMP JUMPDEST PUSH2 0xC36 PUSH2 0x1FCA JUMP JUMPDEST PUSH2 0xC3F CALLER PUSH2 0x1EF2 JUMP JUMPDEST PUSH2 0xC47 PUSH2 0x1FCA JUMP JUMPDEST PUSH2 0xC4F PUSH2 0x1FCA JUMP JUMPDEST PUSH1 0x1 PUSH1 0x1 PUSH1 0xA0 SHL SUB AND DUP1 ISZERO PUSH2 0x24E JUMPI PUSH11 0xFFFFFFFFFFFFFFFFFFFFFF PUSH1 0xA8 SHL PUSH1 0x3 SLOAD AND OR PUSH1 0x3 SSTORE PUSH2 0xC7B JUMPI STOP JUMPDEST PUSH9 0xFF0000000000000000 NOT DUP2 SLOAD AND SWAP1 SSTORE PUSH32 0xC7F505B2F371AE2175EE4913F4499E1F2633A7B5936321EED1CDAEB6115181D2 PUSH1 0x20 PUSH1 0x40 MLOAD PUSH1 0x1 DUP2 MSTORE LOG1 STOP JUMPDEST PUSH9 0xFFFFFFFFFFFFFFFFFF NOT AND PUSH9 0x10000000000000001 OR DUP4 SSTORE DUP4 PUSH2 0xC25 JUMP JUMPDEST PUSH1 0x40 MLOAD PUSH4 0xF92EE8A9 PUSH1 0xE0 SHL DUP2 MSTORE PUSH1 0x4 SWAP1 REVERT JUMPDEST SWAP1 POP ISZERO DUP6 PUSH2 0xC09 JUMP JUMPDEST ADDRESS EXTCODESIZE ISZERO SWAP2 POP PUSH2 0xC01 JUMP JUMPDEST DUP5 SWAP2 POP PUSH2 0xBF7 JUMP JUMPDEST CALLVALUE PUSH2 0x1C3 JUMPI PUSH1 0x0 CALLDATASIZE PUSH1 0x3 NOT ADD SLT PUSH2 0x1C3 JUMPI PUSH1 0x20 PUSH1 0x2 SLOAD PUSH1 0x40 MLOAD SWAP1 DUP2 MSTORE RETURN JUMPDEST CALLVALUE PUSH2 0x1C3 JUMPI PUSH1 0x20 CALLDATASIZE PUSH1 0x3 NOT ADD SLT PUSH2 0x1C3 JUMPI PUSH1 0x1 PUSH1 0x1 PUSH1 0xA0 SHL SUB PUSH2 0xD43 PUSH2 0x1BDB JUMP JUMPDEST AND PUSH1 0x0 MSTORE PUSH1 0x0 PUSH1 0x20 MSTORE PUSH2 0xD70 PUSH2 0xD5C PUSH1 0x40 PUSH1 0x0 KECCAK256 PUSH2 0x1D27 JUMP JUMPDEST PUSH1 0x40 MLOAD SWAP2 DUP3 SWAP2 PUSH1 0x20 DUP4 MSTORE PUSH1 0x20 DUP4 ADD SWAP1 PUSH2 0x1BF1 JUMP JUMPDEST SUB SWAP1 RETURN JUMPDEST CALLVALUE PUSH2 0x1C3 JUMPI PUSH1 0x0 CALLDATASIZE PUSH1 0x3 NOT ADD SLT PUSH2 0x1C3 JUMPI PUSH2 0xD70 PUSH1 0x40 MLOAD PUSH2 0xD94 DUP2 PUSH2 0x1C5F JUMP JUMPDEST PUSH1 0x5 DUP2 MSTORE PUSH5 0x352E302E3 PUSH1 0xDC SHL PUSH1 0x20 DUP3 ADD MSTORE PUSH1 0x40 MLOAD SWAP2 DUP3 SWAP2 PUSH1 0x20 DUP4 MSTORE PUSH1 0x20 DUP4 ADD SWAP1 PUSH2 0x1BF1 JUMP JUMPDEST CALLVALUE PUSH2 0x1C3 JUMPI PUSH1 0x40 CALLDATASIZE PUSH1 0x3 NOT ADD SLT PUSH2 0x1C3 JUMPI PUSH2 0xDD3 PUSH2 0x1BDB JUMP JUMPDEST PUSH1 0x1 PUSH1 0x1 PUSH1 0x40 SHL SUB SWAP1 PUSH1 0x24 CALLDATALOAD DUP3 DUP2 GT PUSH2 0x1C3 JUMPI PUSH2 0xDF4 SWAP1 CALLDATASIZE SWAP1 PUSH1 0x4 ADD PUSH2 0x1BAE JUMP JUMPDEST SWAP2 PUSH2 0xDFD PUSH2 0x1F66 JUMP JUMPDEST PUSH1 0x1 DUP1 PUSH1 0xA0 SHL SUB AND SWAP2 DUP3 PUSH1 0x0 MSTORE PUSH1 0x20 SWAP4 PUSH1 0x6 DUP6 MSTORE PUSH1 0x40 PUSH1 0x0 KECCAK256 CALLER PUSH1 0x0 MSTORE DUP6 MSTORE PUSH1 0xFF PUSH1 0x40 PUSH1 0x0 KECCAK256 SLOAD AND ISZERO PUSH2 0x5CA JUMPI DUP4 PUSH1 0x0 MSTORE PUSH1 0x7 DUP6 MSTORE PUSH1 0x40 PUSH1 0x0 KECCAK256 SWAP1 PUSH1 0x1 SWAP1 DUP2 DUP4 ADD SLOAD DUP1 ISZERO DUP1 ISZERO PUSH2 0x1041 JUMPI JUMPDEST DUP1 ISZERO PUSH2 0x1030 JUMPI JUMPDEST PUSH2 0x101E JUMPI DUP7 PUSH1 0x0 MSTORE PUSH1 0x4 DUP9 MSTORE PUSH1 0x40 PUSH1 0x0 KECCAK256 SWAP1 DUP2 SLOAD PUSH2 0xE10 SWAP1 DUP2 DUP2 MUL SWAP2 DUP2 DUP4 DIV EQ SWAP1 ISZERO OR ISZERO PUSH2 0x419 JUMPI PUSH2 0xE80 SWAP2 PUSH2 0x1EC1 JUMP JUMPDEST TIMESTAMP LT PUSH2 0x100C JUMPI DUP3 PUSH1 0x2 DUP6 ADD SLOAD SWAP2 ADD SLOAD GT PUSH2 0xFFA JUMPI DUP6 PUSH1 0x0 MSTORE PUSH1 0x0 DUP8 MSTORE PUSH1 0x40 PUSH1 0x0 KECCAK256 SWAP1 DUP5 GT PUSH2 0x99F JUMPI PUSH2 0xEBC DUP5 PUSH2 0xEB6 DUP4 SLOAD PUSH2 0x1CED JUMP JUMPDEST DUP4 PUSH2 0x1E13 JUMP JUMPDEST PUSH1 0x0 PUSH1 0x1F DUP6 GT PUSH1 0x1 EQ PUSH2 0xF85 JUMPI SWAP2 PUSH1 0x0 DUP1 MLOAD PUSH1 0x20 PUSH2 0x208F DUP4 CODECOPY DUP2 MLOAD SWAP2 MSTORE SWAP7 SWAP8 SWAP4 SWAP2 PUSH2 0xF01 DUP7 DUP1 PUSH1 0x3 SWAP7 PUSH1 0x0 SWAP2 PUSH2 0xF7A JUMPI JUMPDEST POP DUP2 PUSH1 0x1 SHL SWAP2 PUSH1 0x0 NOT SWAP1 PUSH1 0x3 SHL SHR NOT AND OR SWAP1 JUMP JUMPDEST SWAP1 SSTORE JUMPDEST DUP8 PUSH1 0x0 MSTORE DUP4 MSTORE TIMESTAMP PUSH1 0x40 PUSH1 0x0 KECCAK256 SSTORE ADD PUSH2 0x100 PUSH2 0xFF00 NOT DUP3 SLOAD AND OR SWAP1 SSTORE DUP5 PUSH32 0x13C771563A16F02AF4EFC013304241799D98B4F54D3259DB3D0D02A9267D101A PUSH1 0x40 MLOAD DUP4 DUP2 MSTORE DUP1 PUSH2 0xF55 DUP6 DUP3 ADD DUP8 DUP10 PUSH2 0x1E67 JUMP JUMPDEST SUB SWAP1 LOG2 PUSH2 0xF6F PUSH1 0x40 MLOAD SWAP4 DUP5 SWAP4 PUSH1 0x40 DUP6 MSTORE PUSH1 0x40 DUP6 ADD SWAP2 PUSH2 0x1E67 JUMP JUMPDEST SWAP1 TIMESTAMP SWAP1 DUP4 ADD MSTORE SUB SWAP1 LOG2 STOP JUMPDEST SWAP1 POP DUP10 ADD CALLDATALOAD DUP13 PUSH2 0xEED JUMP JUMPDEST PUSH1 0x1F NOT DUP6 AND SWAP1 DUP3 PUSH1 0x0 MSTORE DUP9 PUSH1 0x0 KECCAK256 SWAP2 PUSH1 0x0 JUMPDEST DUP2 DUP2 LT PUSH2 0xFE5 JUMPI POP SWAP2 PUSH1 0x0 DUP1 MLOAD PUSH1 0x20 PUSH2 0x208F DUP4 CODECOPY DUP2 MLOAD SWAP2 MSTORE SWAP9 SWAP10 SWAP6 SWAP4 SWAP2 DUP8 PUSH1 0x3 SWAP7 SWAP5 LT PUSH2 0xFCD JUMPI JUMPDEST POP POP DUP2 DUP7 DUP2 SHL ADD SWAP1 SSTORE PUSH2 0xF04 JUMP JUMPDEST DUP9 ADD CALLDATALOAD PUSH1 0x0 NOT DUP9 DUP8 SHL PUSH1 0xF8 AND SHR NOT AND SWAP1 SSTORE DUP10 DUP1 PUSH2 0xFBF JUMP JUMPDEST DUP9 DUP4 ADD CALLDATALOAD DUP5 SSTORE SWAP3 DUP6 ADD SWAP3 SWAP2 DUP11 ADD SWAP2 DUP11 ADD PUSH2 0xF97 JUMP JUMPDEST PUSH1 0x40 MLOAD PUSH4 0x3048076B PUSH1 0xE1 SHL DUP2 MSTORE PUSH1 0x4 SWAP1 REVERT JUMPDEST PUSH1 0x40 MLOAD PUSH4 0x191F4D1B PUSH1 0xE3 SHL DUP2 MSTORE PUSH1 0x4 SWAP1 REVERT JUMPDEST PUSH1 0x40 MLOAD PUSH4 0xCBFAE98D PUSH1 0xE0 SHL DUP2 MSTORE PUSH1 0x4 SWAP1 REVERT JUMPDEST POP PUSH1 0xFF PUSH1 0x3 DUP6 ADD SLOAD PUSH1 0x8 SHR AND PUSH2 0xE4F JUMP JUMPDEST POP PUSH1 0xFF PUSH1 0x3 DUP6 ADD SLOAD AND PUSH2 0xE48 JUMP JUMPDEST CALLVALUE PUSH2 0x1C3 JUMPI PUSH1 0x20 DUP1 PUSH1 0x3 NOT CALLDATASIZE ADD SLT PUSH2 0x1C3 JUMPI PUSH2 0x1069 PUSH2 0x1BDB JUMP JUMPDEST PUSH2 0x1071 PUSH2 0x1F66 JUMP JUMPDEST PUSH1 0x1 PUSH1 0x1 PUSH1 0xA0 SHL SUB AND PUSH1 0x0 DUP2 DUP2 MSTORE PUSH1 0x6 DUP4 MSTORE PUSH1 0x40 DUP1 DUP3 KECCAK256 CALLER DUP4 MSTORE DUP5 MSTORE SWAP1 KECCAK256 SLOAD PUSH1 0xFF AND ISZERO PUSH2 0x5CA JUMPI DUP1 PUSH1 0x0 MSTORE PUSH1 0x7 DUP3 MSTORE PUSH1 0x40 PUSH1 0x0 KECCAK256 PUSH1 0x1 DUP2 ADD SLOAD ISZERO DUP1 ISZERO PUSH2 0x114D JUMPI JUMPDEST DUP1 ISZERO PUSH2 0x113C JUMPI JUMPDEST PUSH2 0x101E JUMPI PUSH1 0x4 DUP2 ADD CALLER PUSH1 0x0 MSTORE DUP1 DUP5 MSTORE PUSH1 0xFF PUSH1 0x40 PUSH1 0x0 KECCAK256 SLOAD AND PUSH2 0x112A JUMPI PUSH32 0x9BA9AAE59B148FB52366BDF0FA0F92591643C187095C73C0098C75687829D84 SWAP2 PUSH1 0x2 SWAP2 CALLER PUSH1 0x0 MSTORE DUP6 MSTORE PUSH1 0x40 PUSH1 0x0 KECCAK256 PUSH1 0x1 PUSH1 0xFF NOT DUP3 SLOAD AND OR SWAP1 SSTORE ADD SWAP3 PUSH2 0x111C DUP5 SLOAD PUSH2 0x1E58 JUMP JUMPDEST DUP1 SWAP5 SSTORE PUSH1 0x40 MLOAD SWAP4 DUP5 MSTORE CALLER SWAP4 LOG3 STOP JUMPDEST PUSH1 0x40 MLOAD PUSH4 0x7C9A1CF9 PUSH1 0xE0 SHL DUP2 MSTORE PUSH1 0x4 SWAP1 REVERT JUMPDEST POP PUSH1 0xFF PUSH1 0x3 DUP3 ADD SLOAD PUSH1 0x8 SHR AND PUSH2 0x10B9 JUMP JUMPDEST POP PUSH1 0xFF PUSH1 0x3 DUP3 ADD SLOAD AND PUSH2 0x10B2 JUMP JUMPDEST CALLVALUE PUSH2 0x1C3 JUMPI PUSH1 0x0 CALLDATASIZE PUSH1 0x3 NOT ADD SLT PUSH2 0x1C3 JUMPI PUSH1 0x0 DUP1 MLOAD PUSH1 0x20 PUSH2 0x206F DUP4 CODECOPY DUP2 MLOAD SWAP2 MSTORE SLOAD PUSH1 0x40 MLOAD PUSH1 0x1 PUSH1 0x1 PUSH1 0xA0 SHL SUB SWAP1 SWAP2 AND DUP2 MSTORE PUSH1 0x20 SWAP1 RETURN JUMPDEST CALLVALUE PUSH2 0x1C3 JUMPI PUSH1 0x0 CALLDATASIZE PUSH1 0x3 NOT ADD SLT PUSH2 0x1C3 JUMPI PUSH1 0x3 SLOAD PUSH1 0xFF DUP2 PUSH1 0xA0 SHR AND PUSH1 0x0 EQ PUSH2 0x1211 JUMPI PUSH1 0x1 PUSH1 0x1 PUSH1 0xA0 SHL SUB AND CALLER SUB PUSH2 0x260 JUMPI JUMPDEST PUSH2 0x11CB PUSH2 0x1F66 JUMP JUMPDEST PUSH1 0x0 DUP1 MLOAD PUSH1 0x20 PUSH2 0x20AF DUP4 CODECOPY DUP2 MLOAD SWAP2 MSTORE PUSH1 0x1 PUSH1 0xFF NOT DUP3 SLOAD AND OR SWAP1 SSTORE PUSH32 0x62E78CEA01BEE320CD4E420270B5EA74000D11B0C9F74754EBDBFC544B05A258 PUSH1 0x20 PUSH1 0x40 MLOAD CALLER DUP2 MSTORE LOG1 STOP JUMPDEST POP PUSH2 0x121A PUSH2 0x1F91 JUMP JUMPDEST PUSH2 0x11C3 JUMP JUMPDEST CALLVALUE PUSH2 0x1C3 JUMPI PUSH1 0x20 CALLDATASIZE PUSH1 0x3 NOT ADD SLT PUSH2 0x1C3 JUMPI PUSH1 0x1 PUSH1 0x1 PUSH1 0xA0 SHL SUB PUSH2 0x1240 PUSH2 0x1BDB JUMP JUMPDEST AND PUSH1 0x0 MSTORE PUSH1 0x4 PUSH1 0x20 MSTORE PUSH1 0x80 PUSH1 0x40 PUSH1 0x0 KECCAK256 DUP1 SLOAD SWAP1 PUSH1 0x1 DUP2 ADD SLOAD SWAP1 PUSH1 0xFF PUSH1 0x4 PUSH1 0x3 DUP4 ADD SLOAD SWAP3 ADD SLOAD AND SWAP2 PUSH1 0x40 MLOAD SWAP4 DUP5 MSTORE PUSH1 0x20 DUP5 ADD MSTORE PUSH1 0x40 DUP4 ADD MSTORE ISZERO ISZERO PUSH1 0x60 DUP3 ADD MSTORE RETURN JUMPDEST CALLVALUE PUSH2 0x1C3 JUMPI PUSH1 0x0 CALLDATASIZE PUSH1 0x3 NOT ADD SLT PUSH2 0x1C3 JUMPI PUSH1 0x20 PUSH1 0xFF PUSH1 0x3 SLOAD PUSH1 0xA0 SHR AND PUSH1 0x40 MLOAD SWAP1 ISZERO ISZERO DUP2 MSTORE RETURN JUMPDEST CALLVALUE PUSH2 0x1C3 JUMPI PUSH1 0x0 CALLDATASIZE PUSH1 0x3 NOT ADD SLT PUSH2 0x1C3 JUMPI PUSH2 0x12BF PUSH2 0x1F91 JUMP JUMPDEST PUSH1 0x0 DUP1 MLOAD PUSH1 0x20 PUSH2 0x206F DUP4 CODECOPY DUP2 MLOAD SWAP2 MSTORE DUP1 SLOAD PUSH1 0x1 PUSH1 0x1 PUSH1 0xA0 SHL SUB NOT DUP2 AND SWAP1 SWAP2 SSTORE PUSH1 0x0 SWAP1 PUSH1 0x1 PUSH1 0x1 PUSH1 0xA0 SHL SUB AND PUSH32 0x8BE0079C531659141344CD1FD0A4F28419497F9722A3DAAFE3B4186F6B6457E0 DUP3 DUP1 LOG3 STOP JUMPDEST CALLVALUE PUSH2 0x1C3 JUMPI PUSH1 0x0 CALLDATASIZE PUSH1 0x3 NOT ADD SLT PUSH2 0x1C3 JUMPI PUSH1 0x20 PUSH1 0xFF PUSH1 0x0 DUP1 MLOAD PUSH1 0x20 PUSH2 0x20AF DUP4 CODECOPY DUP2 MLOAD SWAP2 MSTORE SLOAD AND PUSH1 0x40 MLOAD SWAP1 ISZERO ISZERO DUP2 MSTORE RETURN JUMPDEST CALLVALUE PUSH2 0x1C3 JUMPI PUSH1 0x0 CALLDATASIZE PUSH1 0x3 NOT ADD SLT PUSH2 0x1C3 JUMPI PUSH2 0xD70 PUSH1 0x40 MLOAD PUSH2 0x1360 DUP2 PUSH2 0x1C5F JUMP JUMPDEST PUSH1 0x5 DUP2 MSTORE PUSH5 0x322E302E3 PUSH1 0xDC SHL PUSH1 0x20 DUP3 ADD MSTORE PUSH1 0x40 MLOAD SWAP2 DUP3 SWAP2 PUSH1 0x20 DUP4 MSTORE PUSH1 0x20 DUP4 ADD SWAP1 PUSH2 0x1BF1 JUMP JUMPDEST CALLVALUE PUSH2 0x1C3 JUMPI PUSH1 0x0 CALLDATASIZE PUSH1 0x3 NOT ADD SLT PUSH2 0x1C3 JUMPI PUSH32 0x0 PUSH1 0x1 PUSH1 0x1 PUSH1 0xA0 SHL SUB AND ADDRESS SUB PUSH2 0x13F1 JUMPI PUSH1 0x20 PUSH1 0x40 MLOAD PUSH32 0x360894A13BA1A3210667C828492DB98DCA3E2076CC3735A920A3CA505D382BBC DUP2 MSTORE RETURN JUMPDEST PUSH1 0x40 MLOAD PUSH4 0x703E46DD PUSH1 0xE1 SHL DUP2 MSTORE PUSH1 0x4 SWAP1 REVERT JUMPDEST PUSH1 0x40 CALLDATASIZE PUSH1 0x3 NOT ADD SLT PUSH2 0x1C3 JUMPI PUSH2 0x1417 PUSH2 0x1BDB JUMP JUMPDEST PUSH1 0x24 CALLDATALOAD PUSH1 0x1 PUSH1 0x1 PUSH1 0x40 SHL SUB DUP2 GT PUSH2 0x1C3 JUMPI CALLDATASIZE PUSH1 0x23 DUP3 ADD SLT ISZERO PUSH2 0x1C3 JUMPI PUSH2 0x1447 SWAP1 CALLDATASIZE SWAP1 PUSH1 0x24 DUP2 PUSH1 0x4 ADD CALLDATALOAD SWAP2 ADD PUSH2 0x1CB6 JUMP JUMPDEST SWAP1 PUSH1 0x1 PUSH1 0x1 PUSH1 0xA0 SHL SUB PUSH32 0x0 DUP2 AND ADDRESS DUP2 EQ SWAP1 DUP2 ISZERO PUSH2 0x1624 JUMPI JUMPDEST POP PUSH2 0x13F1 JUMPI DUP1 PUSH1 0x3 SLOAD PUSH1 0xFF DUP2 PUSH1 0xA0 SHR AND PUSH1 0x0 EQ PUSH2 0x1615 JUMPI AND CALLER SUB PUSH2 0x260 JUMPI JUMPDEST PUSH1 0x40 MLOAD PUSH4 0x52D1902D PUSH1 0xE0 SHL DUP2 MSTORE SWAP1 DUP3 AND SWAP2 PUSH1 0x20 SWAP2 DUP3 DUP2 PUSH1 0x4 DUP2 DUP8 GAS STATICCALL PUSH1 0x0 SWAP2 DUP2 PUSH2 0x15E6 JUMPI JUMPDEST POP PUSH2 0x14E0 JUMPI PUSH1 0x40 MLOAD PUSH4 0x4C9C8CE3 PUSH1 0xE0 SHL DUP2 MSTORE PUSH1 0x4 DUP2 ADD DUP6 SWAP1 MSTORE PUSH1 0x24 SWAP1 REVERT JUMPDEST SWAP3 DUP5 SWAP4 PUSH32 0x360894A13BA1A3210667C828492DB98DCA3E2076CC3735A920A3CA505D382BBC SWAP1 DUP2 DUP2 SUB PUSH2 0x15CE JUMPI POP DUP3 EXTCODESIZE ISZERO PUSH2 0x15B5 JUMPI DUP1 SLOAD PUSH1 0x1 PUSH1 0x1 PUSH1 0xA0 SHL SUB NOT AND DUP3 OR SWAP1 SSTORE PUSH1 0x40 MLOAD SWAP1 PUSH32 0xBC7CD75A20EE27FD9ADEBAB32041F755214DBC6BFFA90CC0225B39DA2E5C2D3B PUSH1 0x0 DUP1 LOG2 DUP4 MLOAD ISZERO PUSH2 0x159B JUMPI POP PUSH1 0x0 DUP1 DUP5 DUP5 PUSH2 0x2A8 SWAP7 MLOAD SWAP2 ADD DUP5 GAS DELEGATECALL SWAP1 RETURNDATASIZE ISZERO PUSH2 0x1592 JUMPI RETURNDATASIZE PUSH2 0x1575 DUP2 PUSH2 0x1C9B JUMP JUMPDEST SWAP1 PUSH2 0x1583 PUSH1 0x40 MLOAD SWAP3 DUP4 PUSH2 0x1C7A JUMP JUMPDEST DUP2 MSTORE PUSH1 0x0 DUP2 SWAP5 RETURNDATASIZE SWAP3 ADD RETURNDATACOPY PUSH2 0x200B JUMP JUMPDEST PUSH1 0x60 SWAP3 POP PUSH2 0x200B JUMP JUMPDEST SWAP3 POP POP POP CALLVALUE PUSH2 0x15A6 JUMPI STOP JUMPDEST PUSH4 0xB398979F PUSH1 0xE0 SHL DUP2 MSTORE PUSH1 0x4 SWAP1 REVERT JUMPDEST PUSH1 0x40 MLOAD PUSH4 0x4C9C8CE3 PUSH1 0xE0 SHL DUP2 MSTORE PUSH1 0x4 DUP2 ADD DUP4 SWAP1 MSTORE PUSH1 0x24 SWAP1 REVERT JUMPDEST PUSH1 0x24 SWAP1 PUSH1 0x40 MLOAD SWAP1 PUSH4 0x2A875269 PUSH1 0xE2 SHL DUP3 MSTORE PUSH1 0x4 DUP3 ADD MSTORE REVERT JUMPDEST SWAP1 SWAP2 POP DUP4 DUP2 DUP2 RETURNDATASIZE DUP4 GT PUSH2 0x160E JUMPI JUMPDEST PUSH2 0x15FE DUP2 DUP4 PUSH2 0x1C7A JUMP JUMPDEST DUP2 ADD SUB SLT PUSH2 0x1C3 JUMPI MLOAD SWAP1 DUP7 PUSH2 0x14C2 JUMP JUMPDEST POP RETURNDATASIZE PUSH2 0x15F4 JUMP JUMPDEST POP POP PUSH2 0x161F PUSH2 0x1F91 JUMP JUMPDEST PUSH2 0x149D JUMP JUMPDEST SWAP1 POP DUP2 PUSH32 0x360894A13BA1A3210667C828492DB98DCA3E2076CC3735A920A3CA505D382BBC SLOAD AND EQ ISZERO DUP5 PUSH2 0x147E JUMP JUMPDEST CALLVALUE PUSH2 0x1C3 JUMPI PUSH1 0x40 CALLDATASIZE PUSH1 0x3 NOT ADD SLT PUSH2 0x1C3 JUMPI PUSH2 0x166B PUSH2 0x1BDB JUMP JUMPDEST PUSH1 0x24 CALLDATALOAD SWAP1 PUSH1 0x1 DUP1 PUSH1 0xA0 SHL SUB DUP1 SWAP2 AND PUSH1 0x0 MSTORE PUSH1 0x5 PUSH1 0x20 MSTORE PUSH1 0x40 PUSH1 0x0 KECCAK256 DUP1 SLOAD DUP4 LT ISZERO PUSH2 0x1C3 JUMPI PUSH1 0x20 SWAP3 PUSH2 0x169B SWAP2 PUSH2 0x1C31 JUMP JUMPDEST SWAP2 SWAP1 SLOAD PUSH1 0x40 MLOAD SWAP3 PUSH1 0x3 SHL SHR AND DUP2 MSTORE RETURN JUMPDEST CALLVALUE PUSH2 0x1C3 JUMPI PUSH1 0x0 CALLDATASIZE PUSH1 0x3 NOT ADD SLT PUSH2 0x1C3 JUMPI PUSH1 0x3 SLOAD PUSH1 0x40 MLOAD PUSH1 0x1 PUSH1 0x1 PUSH1 0xA0 SHL SUB SWAP1 SWAP2 AND DUP2 MSTORE PUSH1 0x20 SWAP1 RETURN JUMPDEST CALLVALUE PUSH2 0x1C3 JUMPI PUSH1 0x0 CALLDATASIZE PUSH1 0x3 NOT ADD SLT PUSH2 0x1C3 JUMPI PUSH1 0x20 PUSH1 0x40 MLOAD PUSH1 0x5 DUP2 MSTORE RETURN JUMPDEST CALLVALUE PUSH2 0x1C3 JUMPI PUSH1 0x0 CALLDATASIZE PUSH1 0x3 NOT ADD SLT PUSH2 0x1C3 JUMPI PUSH1 0x3 SLOAD PUSH1 0xFF DUP2 PUSH1 0xA0 SHR AND PUSH1 0x0 EQ PUSH2 0x1780 JUMPI PUSH1 0x1 PUSH1 0x1 PUSH1 0xA0 SHL SUB AND CALLER SUB PUSH2 0x260 JUMPI JUMPDEST PUSH1 0x0 DUP1 MLOAD PUSH1 0x20 PUSH2 0x20AF DUP4 CODECOPY DUP2 MLOAD SWAP2 MSTORE DUP1 SLOAD PUSH1 0xFF DUP2 AND ISZERO PUSH2 0x176E JUMPI PUSH1 0xFF NOT AND SWAP1 SSTORE PUSH32 0x5DB9EE0A495BF2E6FF9C91A7834C1BA4FDD244A5E8AA4E537BD38AEAE4B073AA PUSH1 0x20 PUSH1 0x40 MLOAD CALLER DUP2 MSTORE LOG1 STOP JUMPDEST PUSH1 0x40 MLOAD PUSH4 0x8DFC202B PUSH1 0xE0 SHL DUP2 MSTORE PUSH1 0x4 SWAP1 REVERT JUMPDEST POP PUSH2 0x1789 PUSH2 0x1F91 JUMP JUMPDEST PUSH2 0x1722 JUMP JUMPDEST CALLVALUE PUSH2 0x1C3 JUMPI PUSH1 0x20 DUP1 PUSH1 0x3 NOT CALLDATASIZE ADD SLT PUSH2 0x1C3 JUMPI PUSH1 0x1 PUSH1 0x1 PUSH1 0xA0 SHL SUB PUSH2 0x17B0 PUSH2 0x1BDB JUMP JUMPDEST AND PUSH1 0x0 MSTORE PUSH1 0x4 DUP2 MSTORE PUSH1 0x40 PUSH1 0x0 KECCAK256 DUP1 SLOAD SWAP2 PUSH1 0x1 SWAP3 PUSH1 0x1 DUP4 ADD SLOAD SWAP3 PUSH1 0x2 DUP2 ADD SWAP3 PUSH1 0xFF PUSH1 0x4 PUSH1 0x3 DUP5 ADD SLOAD SWAP4 ADD SLOAD AND SWAP3 DUP5 SLOAD PUSH2 0x17E7 DUP2 PUSH2 0x1EAA JUMP JUMPDEST SWAP1 PUSH2 0x17F5 PUSH1 0x40 MLOAD SWAP3 DUP4 PUSH2 0x1C7A JUMP JUMPDEST DUP1 DUP3 MSTORE DUP9 DUP5 DUP4 ADD DUP1 SWAP9 PUSH1 0x0 MSTORE DUP6 PUSH1 0x0 KECCAK256 PUSH1 0x0 SWAP2 JUMPDEST DUP5 DUP4 LT PUSH2 0x188A JUMPI POP POP POP POP POP PUSH1 0x40 MLOAD SWAP7 PUSH1 0xA0 DUP9 ADD SWAP3 DUP9 MSTORE DUP4 DUP9 ADD MSTORE PUSH1 0xA0 PUSH1 0x40 DUP9 ADD MSTORE MLOAD DUP1 SWAP2 MSTORE PUSH1 0xC0 DUP7 ADD SWAP2 PUSH1 0xC0 DUP3 PUSH1 0x5 SHL DUP9 ADD ADD SWAP6 SWAP3 PUSH1 0x0 SWAP1 JUMPDEST DUP4 DUP3 LT PUSH2 0x185F JUMPI DUP9 DUP1 DUP10 DUP10 DUP10 PUSH1 0x60 DUP5 ADD MSTORE ISZERO ISZERO PUSH1 0x80 DUP4 ADD MSTORE SUB SWAP1 RETURN JUMPDEST SWAP1 SWAP2 SWAP3 SWAP4 SWAP7 DUP4 DUP1 PUSH2 0x187B DUP13 SWAP4 PUSH1 0xBF NOT DUP14 DUP3 SUB ADD DUP7 MSTORE DUP12 MLOAD PUSH2 0x1BF1 JUMP JUMPDEST SWAP10 ADD SWAP3 ADD SWAP3 ADD SWAP1 SWAP4 SWAP3 SWAP2 PUSH2 0x1843 JUMP JUMPDEST DUP4 DUP9 DUP2 SWAP3 PUSH2 0x189A DUP6 SWAP12 SWAP11 SWAP12 PUSH2 0x1D27 JUMP JUMPDEST DUP2 MSTORE ADD SWAP3 ADD SWAP3 ADD SWAP2 SWAP1 SWAP7 SWAP6 SWAP7 PUSH2 0x1809 JUMP JUMPDEST CALLVALUE PUSH2 0x1C3 JUMPI PUSH1 0x0 CALLDATASIZE PUSH1 0x3 NOT ADD SLT PUSH2 0x1C3 JUMPI PUSH1 0x20 PUSH2 0x18C6 PUSH2 0x1E88 JUMP JUMPDEST PUSH1 0x40 MLOAD SWAP1 DUP2 MSTORE RETURN JUMPDEST CALLVALUE PUSH2 0x1C3 JUMPI PUSH1 0x0 CALLDATASIZE PUSH1 0x3 NOT ADD SLT PUSH2 0x1C3 JUMPI CALLER PUSH1 0x0 MSTORE PUSH1 0x7 PUSH1 0x20 MSTORE PUSH1 0x40 PUSH1 0x0 KECCAK256 PUSH1 0x1 DUP2 ADD SLOAD ISZERO DUP1 ISZERO PUSH2 0x194C JUMPI JUMPDEST DUP1 ISZERO PUSH2 0x193B JUMPI JUMPDEST PUSH2 0x101E JUMPI PUSH1 0x3 ADD DUP1 SLOAD PUSH1 0xFF NOT AND PUSH1 0x1 OR SWAP1 SSTORE CALLER PUSH32 0x8154B6C5E1FC90D44B49808EF93F9739148D0821411890F8CD684385E24B9F1E PUSH1 0x0 DUP1 LOG2 STOP JUMPDEST POP PUSH1 0xFF PUSH1 0x3 DUP3 ADD SLOAD PUSH1 0x8 SHR AND PUSH2 0x1901 JUMP JUMPDEST POP PUSH1 0xFF PUSH1 0x3 DUP3 ADD SLOAD AND PUSH2 0x18FA JUMP JUMPDEST CALLVALUE PUSH2 0x1C3 JUMPI PUSH1 0x20 CALLDATASIZE PUSH1 0x3 NOT ADD SLT PUSH2 0x1C3 JUMPI PUSH1 0x1 PUSH1 0x1 PUSH1 0xA0 SHL SUB PUSH2 0x197B PUSH2 0x1BDB JUMP JUMPDEST AND PUSH1 0x0 MSTORE PUSH1 0x1 PUSH1 0x20 MSTORE PUSH1 0x20 PUSH1 0x40 PUSH1 0x0 KECCAK256 SLOAD PUSH1 0x40 MLOAD SWAP1 DUP2 MSTORE RETURN JUMPDEST CALLVALUE PUSH2 0x1C3 JUMPI PUSH1 0x20 DUP1 PUSH1 0x3 NOT CALLDATASIZE ADD SLT PUSH2 0x1C3 JUMPI PUSH1 0x1 PUSH1 0x1 PUSH1 0x40 SHL SUB PUSH1 0x4 CALLDATALOAD DUP2 DUP2 GT PUSH2 0x1C3 JUMPI PUSH2 0x19C6 SWAP1 CALLDATASIZE SWAP1 PUSH1 0x4 ADD PUSH2 0x1BAE JUMP JUMPDEST SWAP1 PUSH2 0x19CF PUSH2 0x1F66 JUMP JUMPDEST CALLER PUSH1 0x0 MSTORE PUSH1 0x0 DUP5 MSTORE PUSH2 0x19E5 PUSH1 0x40 PUSH1 0x0 KECCAK256 SLOAD PUSH2 0x1CED JUMP JUMPDEST ISZERO SWAP3 CALLER PUSH1 0x0 MSTORE PUSH1 0x0 DUP6 MSTORE PUSH1 0x40 PUSH1 0x0 KECCAK256 SWAP1 DUP4 GT PUSH2 0x99F JUMPI PUSH2 0x1A09 DUP4 PUSH2 0xEB6 DUP4 SLOAD PUSH2 0x1CED JUMP JUMPDEST PUSH1 0x0 PUSH1 0x1F DUP5 GT PUSH1 0x1 EQ PUSH2 0x1B34 JUMPI SWAP4 PUSH2 0x1A75 SWAP3 SWAP2 PUSH2 0x1A4C DUP6 DUP1 PUSH1 0x0 DUP1 MLOAD PUSH1 0x20 PUSH2 0x208F DUP4 CODECOPY DUP2 MLOAD SWAP2 MSTORE SWAP9 PUSH1 0x0 SWAP2 PUSH2 0x1B29 JUMPI POP DUP2 PUSH1 0x1 SHL SWAP2 PUSH1 0x0 NOT SWAP1 PUSH1 0x3 SHL SHR NOT AND OR SWAP1 JUMP JUMPDEST SWAP1 SSTORE JUMPDEST CALLER PUSH1 0x0 MSTORE PUSH1 0x1 DUP7 MSTORE TIMESTAMP PUSH1 0x40 PUSH1 0x0 KECCAK256 SSTORE PUSH2 0x1A83 JUMPI JUMPDEST PUSH1 0x40 MLOAD SWAP3 PUSH1 0x40 DUP5 MSTORE PUSH1 0x40 DUP5 ADD SWAP2 PUSH2 0x1E67 JUMP JUMPDEST SWAP3 TIMESTAMP SWAP1 DUP3 ADD MSTORE DUP1 CALLER SWAP4 SUB SWAP1 LOG2 STOP JUMPDEST PUSH2 0x1A8E PUSH1 0x2 SLOAD PUSH2 0x1E58 JUMP JUMPDEST DUP1 PUSH1 0x2 SSTORE PUSH1 0x40 MLOAD DUP2 DUP2 MSTORE PUSH32 0xE29D35093005F4D575E1003753426B57A7F64378BA73332EEF9C6CCC2B8DECD6 DUP8 CALLER SWAP3 LOG2 DUP6 PUSH2 0x1F4 DUP3 LT ISZERO DUP1 PUSH2 0x1B19 JUMPI JUMPDEST PUSH2 0x1AD6 JUMPI JUMPDEST POP POP PUSH2 0x1A63 JUMP JUMPDEST PUSH1 0x3 DUP1 SLOAD PUSH1 0xFF PUSH1 0xA0 SHL NOT AND PUSH1 0x1 PUSH1 0xA0 SHL OR SWAP1 SSTORE PUSH1 0x40 MLOAD SWAP2 DUP3 MSTORE PUSH32 0x8BB6EFD782A840326F30B67CFD80C722B717FA4AA858C570971781A1B4EA1D24 SWAP2 LOG1 DUP6 DUP6 PUSH2 0x1ACF JUMP JUMPDEST POP PUSH1 0xFF PUSH1 0x3 SLOAD PUSH1 0xA0 SHR AND ISZERO PUSH2 0x1ACA JUMP JUMPDEST SWAP1 POP DUP6 ADD CALLDATALOAD DUP11 PUSH2 0xEED JUMP JUMPDEST PUSH1 0x1F NOT DUP5 AND SWAP1 DUP3 PUSH1 0x0 MSTORE DUP7 PUSH1 0x0 KECCAK256 SWAP2 PUSH1 0x0 JUMPDEST DUP9 DUP3 DUP3 LT PUSH2 0x1B98 JUMPI POP POP SWAP2 PUSH2 0x1A75 SWAP5 SWAP4 SWAP2 DUP7 PUSH1 0x0 DUP1 MLOAD PUSH1 0x20 PUSH2 0x208F DUP4 CODECOPY DUP2 MLOAD SWAP2 MSTORE SWAP9 SWAP5 LT PUSH2 0x1B7E JUMPI JUMPDEST POP POP PUSH1 0x1 DUP6 DUP2 SHL ADD SWAP1 SSTORE PUSH2 0x1A4F JUMP JUMPDEST DUP5 ADD CALLDATALOAD PUSH1 0x0 NOT PUSH1 0x3 DUP9 SWAP1 SHL PUSH1 0xF8 AND SHR NOT AND SWAP1 SSTORE DUP8 DUP1 PUSH2 0x1B6F JUMP JUMPDEST PUSH1 0x1 DUP5 SWAP6 DUP3 SWAP4 SWAP6 DUP10 ADD CALLDATALOAD DUP2 SSTORE ADD SWAP5 ADD SWAP3 ADD PUSH2 0x1B46 JUMP JUMPDEST SWAP2 DUP2 PUSH1 0x1F DUP5 ADD SLT ISZERO PUSH2 0x1C3 JUMPI DUP3 CALLDATALOAD SWAP2 PUSH1 0x1 PUSH1 0x1 PUSH1 0x40 SHL SUB DUP4 GT PUSH2 0x1C3 JUMPI PUSH1 0x20 DUP4 DUP2 DUP7 ADD SWAP6 ADD ADD GT PUSH2 0x1C3 JUMPI JUMP JUMPDEST PUSH1 0x4 CALLDATALOAD SWAP1 PUSH1 0x1 PUSH1 0x1 PUSH1 0xA0 SHL SUB DUP3 AND DUP3 SUB PUSH2 0x1C3 JUMPI JUMP JUMPDEST SWAP2 SWAP1 DUP3 MLOAD SWAP3 DUP4 DUP3 MSTORE PUSH1 0x0 JUMPDEST DUP5 DUP2 LT PUSH2 0x1C1D JUMPI POP POP DUP3 PUSH1 0x0 PUSH1 0x20 DUP1 SWAP5 SWAP6 DUP5 ADD ADD MSTORE PUSH1 0x1F DUP1 NOT SWAP2 ADD AND ADD ADD SWAP1 JUMP JUMPDEST PUSH1 0x20 DUP2 DUP4 ADD DUP2 ADD MLOAD DUP5 DUP4 ADD DUP3 ADD MSTORE ADD PUSH2 0x1BFC JUMP JUMPDEST DUP1 SLOAD DUP3 LT ISZERO PUSH2 0x1C49 JUMPI PUSH1 0x0 MSTORE PUSH1 0x20 PUSH1 0x0 KECCAK256 ADD SWAP1 PUSH1 0x0 SWAP1 JUMP JUMPDEST PUSH4 0x4E487B71 PUSH1 0xE0 SHL PUSH1 0x0 MSTORE PUSH1 0x32 PUSH1 0x4 MSTORE PUSH1 0x24 PUSH1 0x0 REVERT JUMPDEST PUSH1 0x40 DUP2 ADD SWAP1 DUP2 LT PUSH1 0x1 PUSH1 0x1 PUSH1 0x40 SHL SUB DUP3 GT OR PUSH2 0x99F JUMPI PUSH1 0x40 MSTORE JUMP JUMPDEST SWAP1 PUSH1 0x1F DUP1 NOT SWAP2 ADD AND DUP2 ADD SWAP1 DUP2 LT PUSH1 0x1 PUSH1 0x1 PUSH1 0x40 SHL SUB DUP3 GT OR PUSH2 0x99F JUMPI PUSH1 0x40 MSTORE JUMP JUMPDEST PUSH1 0x1 PUSH1 0x1 PUSH1 0x40 SHL SUB DUP2 GT PUSH2 0x99F JUMPI PUSH1 0x1F ADD PUSH1 0x1F NOT AND PUSH1 0x20 ADD SWAP1 JUMP JUMPDEST SWAP3 SWAP2 SWAP3 PUSH2 0x1CC2 DUP3 PUSH2 0x1C9B JUMP JUMPDEST SWAP2 PUSH2 0x1CD0 PUSH1 0x40 MLOAD SWAP4 DUP5 PUSH2 0x1C7A JUMP JUMPDEST DUP3 SWAP5 DUP2 DUP5 MSTORE DUP2 DUP4 ADD GT PUSH2 0x1C3 JUMPI DUP3 DUP2 PUSH1 0x20 SWAP4 DUP5 PUSH1 0x0 SWAP7 ADD CALLDATACOPY ADD ADD MSTORE JUMP JUMPDEST SWAP1 PUSH1 0x1 DUP3 DUP2 SHR SWAP3 AND DUP1 ISZERO PUSH2 0x1D1D JUMPI JUMPDEST PUSH1 0x20 DUP4 LT EQ PUSH2 0x1D07 JUMPI JUMP JUMPDEST PUSH4 0x4E487B71 PUSH1 0xE0 SHL PUSH1 0x0 MSTORE PUSH1 0x22 PUSH1 0x4 MSTORE PUSH1 0x24 PUSH1 0x0 REVERT JUMPDEST SWAP2 PUSH1 0x7F AND SWAP2 PUSH2 0x1CFC JUMP JUMPDEST SWAP1 PUSH1 0x40 MLOAD SWAP2 DUP3 PUSH1 0x0 DUP3 SLOAD PUSH2 0x1D3A DUP2 PUSH2 0x1CED JUMP JUMPDEST SWAP1 DUP2 DUP5 MSTORE PUSH1 0x20 SWAP5 PUSH1 0x1 SWAP2 PUSH1 0x1 DUP2 AND SWAP1 DUP2 PUSH1 0x0 EQ PUSH2 0x1DAA JUMPI POP PUSH1 0x1 EQ PUSH2 0x1D6B JUMPI JUMPDEST POP POP POP PUSH2 0x1D69 SWAP3 POP SUB DUP4 PUSH2 0x1C7A JUMP JUMPDEST JUMP JUMPDEST PUSH1 0x0 SWAP1 DUP2 MSTORE DUP6 DUP2 KECCAK256 SWAP6 SWAP4 POP SWAP2 SWAP1 JUMPDEST DUP2 DUP4 LT PUSH2 0x1D92 JUMPI POP POP PUSH2 0x1D69 SWAP4 POP DUP3 ADD ADD CODESIZE DUP1 DUP1 PUSH2 0x1D5A JUMP JUMPDEST DUP6 SLOAD DUP9 DUP5 ADD DUP6 ADD MSTORE SWAP5 DUP6 ADD SWAP5 DUP8 SWAP5 POP SWAP2 DUP4 ADD SWAP2 PUSH2 0x1D79 JUMP JUMPDEST SWAP3 POP POP POP PUSH2 0x1D69 SWAP5 SWAP3 POP PUSH1 0xFF NOT AND DUP3 DUP5 ADD MSTORE ISZERO ISZERO PUSH1 0x5 SHL DUP3 ADD ADD CODESIZE DUP1 DUP1 PUSH2 0x1D5A JUMP JUMPDEST SWAP2 DUP2 PUSH1 0x1F DUP5 ADD SLT ISZERO PUSH2 0x1C3 JUMPI DUP3 CALLDATALOAD SWAP2 PUSH1 0x1 PUSH1 0x1 PUSH1 0x40 SHL SUB DUP4 GT PUSH2 0x1C3 JUMPI PUSH1 0x20 DUP1 DUP6 ADD SWAP5 DUP5 PUSH1 0x5 SHL ADD ADD GT PUSH2 0x1C3 JUMPI JUMP JUMPDEST DUP2 DUP2 LT PUSH2 0x1E07 JUMPI POP POP JUMP JUMPDEST PUSH1 0x0 DUP2 SSTORE PUSH1 0x1 ADD PUSH2 0x1DFC JUMP JUMPDEST SWAP2 SWAP1 PUSH1 0x1F DUP2 GT PUSH2 0x1E22 JUMPI POP POP POP JUMP JUMPDEST PUSH2 0x1D69 SWAP3 PUSH1 0x0 MSTORE PUSH1 0x20 PUSH1 0x0 KECCAK256 SWAP1 PUSH1 0x20 PUSH1 0x1F DUP5 ADD PUSH1 0x5 SHR DUP4 ADD SWAP4 LT PUSH2 0x1E4E JUMPI JUMPDEST PUSH1 0x1F ADD PUSH1 0x5 SHR ADD SWAP1 PUSH2 0x1DFC JUMP JUMPDEST SWAP1 SWAP2 POP DUP2 SWAP1 PUSH2 0x1E41 JUMP JUMPDEST PUSH1 0x0 NOT DUP2 EQ PUSH2 0x419 JUMPI PUSH1 0x1 ADD SWAP1 JUMP JUMPDEST SWAP1 DUP1 PUSH1 0x20 SWAP4 SWAP3 DUP2 DUP5 MSTORE DUP5 DUP5 ADD CALLDATACOPY PUSH1 0x0 DUP3 DUP3 ADD DUP5 ADD MSTORE PUSH1 0x1F ADD PUSH1 0x1F NOT AND ADD ADD SWAP1 JUMP JUMPDEST PUSH1 0x2 SLOAD PUSH2 0x1F4 SWAP1 DUP2 DUP2 LT ISZERO PUSH2 0x1EA3 JUMPI DUP2 SUB SWAP1 DUP2 GT PUSH2 0x419 JUMPI SWAP1 JUMP JUMPDEST POP POP PUSH1 0x0 SWAP1 JUMP JUMPDEST PUSH1 0x1 PUSH1 0x1 PUSH1 0x40 SHL SUB DUP2 GT PUSH2 0x99F JUMPI PUSH1 0x5 SHL PUSH1 0x20 ADD SWAP1 JUMP JUMPDEST SWAP2 SWAP1 DUP3 ADD DUP1 SWAP3 GT PUSH2 0x419 JUMPI JUMP JUMPDEST SWAP2 SWAP1 DUP2 LT ISZERO PUSH2 0x1C49 JUMPI PUSH1 0x5 SHL ADD SWAP1 JUMP JUMPDEST CALLDATALOAD PUSH1 0x1 PUSH1 0x1 PUSH1 0xA0 SHL SUB DUP2 AND DUP2 SUB PUSH2 0x1C3 JUMPI SWAP1 JUMP JUMPDEST PUSH1 0x1 PUSH1 0x1 PUSH1 0xA0 SHL SUB SWAP1 DUP2 AND SWAP1 DUP2 ISZERO PUSH2 0x1F4D JUMPI PUSH1 0x0 DUP1 MLOAD PUSH1 0x20 PUSH2 0x206F DUP4 CODECOPY DUP2 MLOAD SWAP2 MSTORE DUP1 SLOAD PUSH1 0x1 PUSH1 0x1 PUSH1 0xA0 SHL SUB NOT DUP2 AND DUP5 OR SWAP1 SWAP2 SSTORE AND PUSH32 0x8BE0079C531659141344CD1FD0A4F28419497F9722A3DAAFE3B4186F6B6457E0 PUSH1 0x0 DUP1 LOG3 JUMP JUMPDEST PUSH1 0x40 MLOAD PUSH4 0x1E4FBDF7 PUSH1 0xE0 SHL DUP2 MSTORE PUSH1 0x0 PUSH1 0x4 DUP3 ADD MSTORE PUSH1 0x24 SWAP1 REVERT JUMPDEST PUSH1 0xFF PUSH1 0x0 DUP1 MLOAD PUSH1 0x20 PUSH2 0x20AF DUP4 CODECOPY DUP2 MLOAD SWAP2 MSTORE SLOAD AND PUSH2 0x1F7F JUMPI JUMP JUMPDEST PUSH1 0x40 MLOAD PUSH4 0xD93C0665 PUSH1 0xE0 SHL DUP2 MSTORE PUSH1 0x4 SWAP1 REVERT JUMPDEST PUSH1 0x0 DUP1 MLOAD PUSH1 0x20 PUSH2 0x206F DUP4 CODECOPY DUP2 MLOAD SWAP2 MSTORE SLOAD PUSH1 0x1 PUSH1 0x1 PUSH1 0xA0 SHL SUB AND CALLER SUB PUSH2 0x1FB2 JUMPI JUMP JUMPDEST PUSH1 0x40 MLOAD PUSH4 0x118CDAA7 PUSH1 0xE0 SHL DUP2 MSTORE CALLER PUSH1 0x4 DUP3 ADD MSTORE PUSH1 0x24 SWAP1 REVERT JUMPDEST PUSH1 0xFF PUSH32 0xF0C57E16840DF040F15088DC2F81FE391C3923BEC73E23A9662EFC9C229C6A00 SLOAD PUSH1 0x40 SHR AND ISZERO PUSH2 0x1FF9 JUMPI JUMP JUMPDEST PUSH1 0x40 MLOAD PUSH4 0x1AFCD79F PUSH1 0xE3 SHL DUP2 MSTORE PUSH1 0x4 SWAP1 REVERT JUMPDEST SWAP1 PUSH2 0x2032 JUMPI POP DUP1 MLOAD ISZERO PUSH2 0x2020 JUMPI PUSH1 0x20 DUP2 MLOAD SWAP2 ADD REVERT JUMPDEST PUSH1 0x40 MLOAD PUSH4 0xD6BDA275 PUSH1 0xE0 SHL DUP2 MSTORE PUSH1 0x4 SWAP1 REVERT JUMPDEST DUP2 MLOAD ISZERO DUP1 PUSH2 0x2065 JUMPI JUMPDEST PUSH2 0x2043 JUMPI POP SWAP1 JUMP JUMPDEST PUSH1 0x40 MLOAD PUSH4 0x9996B315 PUSH1 0xE0 SHL DUP2 MSTORE PUSH1 0x1 PUSH1 0x1 PUSH1 0xA0 SHL SUB SWAP1 SWAP2 AND PUSH1 0x4 DUP3 ADD MSTORE PUSH1 0x24 SWAP1 REVERT JUMPDEST POP DUP1 EXTCODESIZE ISZERO PUSH2 0x203B JUMP INVALID SWAP1 AND 0xD0 SWAP14 PUSH19 0xD40FDAE2FD8CEAC6B6234C7706214FD39C1CD1 0xE6 MULMOD LOG0 MSTORE DUP13 NOT SWAP4 STOP 0xDC 0xB9 0x4C SIGNEXTEND 0x2C MUL JUMPDEST SMOD CALLDATASIZE 0xB4 0xB6 0x2B SHR MSIZE PUSH0 0x2C 0xA7 0xAD 0x4C PUSH18 0x1EADA6026D477E87DE9CCA08CD5ED15C6E18 PUSH31 0x77E9AEE88184C21F4F2182AB5827CB3B7E07FBEDCD63F03300A26469706673 PC 0x22 SLT KECCAK256 PUSH22 0xAF43983FCA9414FC4C085303049AC72F4DB4D99AD696 0x2D 0xD PUSH14 0x89664972CEE64736F6C63430008 XOR STOP CALLER "},"methodIdentifiers":{"DECENTRALIZATION_THRESHOLD()":"c859c10b","MAX_GUARDIANS()":"422c1d37","MIN_GUARDIANS()":"f91b0432","MIN_TIME_LOCK_HOURS()":"c81c083e","UPGRADE_INTERFACE_VERSION()":"ad3cb1cc","cancelRecovery()":"0ba234d6","completeRecovery(address,string)":"95e7ddd4","configureRecovery(address[],uint256,uint256,string[],bytes32)":"c4e731a0","getGuardians(address)":"f18858ab","getPendingRecovery(address)":"ed1d0d13","getProfile(address)":"0f53a470","getRecoveryConfig(address)":"2788bbda","guardians(address,uint256)":"47d05bf8","initialize(address)":"c4d66de8","initiateRecovery(address)":"d5ce9aad","isDecentralized()":"421f9515","isGuardian(address,address)":"d4ee9734","lastUpdated(address)":"0a6f93e6","multisig()":"4783c35b","multisigRequired()":"7241784c","owner()":"8da5cb5b","pause()":"8456cb59","paused()":"5c975abb","profiles(address)":"bbe15627","proxiableUUID()":"52d1902d","recoveryConfigs(address)":"7c8e804e","renounceOwnership()":"715018a6","setMultisig(address)":"f3283fba","totalUsers()":"bff1f9e1","transferOwnership(address)":"f2fde38b","unpause()":"3f4ba83a","updateProfile(string)":"009299e3","upgradeToAndCall(address,bytes)":"4f1ef286","usersUntilDecentralization()":"15740b08","version()":"54fd4d50","voteForRecovery(address)":"8f2a9099"}},"storageLayout":{"storage":[{"astId":1669,"contract":"contracts/ProfileRegistryV2.sol:ProfileRegistryV2","label":"profiles","offset":0,"slot":"0","type":"t_mapping(t_address,t_string_storage)"},{"astId":1673,"contract":"contracts/ProfileRegistryV2.sol:ProfileRegistryV2","label":"lastUpdated","offset":0,"slot":"1","type":"t_mapping(t_address,t_uint256)"},{"astId":1675,"contract":"contracts/ProfileRegistryV2.sol:ProfileRegistryV2","label":"totalUsers","offset":0,"slot":"2","type":"t_uint256"},{"astId":1677,"contract":"contracts/ProfileRegistryV2.sol:ProfileRegistryV2","label":"multisig","offset":0,"slot":"3","type":"t_address"},{"astId":1679,"contract":"contracts/ProfileRegistryV2.sol:ProfileRegistryV2","label":"multisigRequired","offset":20,"slot":"3","type":"t_bool"},{"astId":1696,"contract":"contracts/ProfileRegistryV2.sol:ProfileRegistryV2","label":"recoveryConfigs","offset":0,"slot":"4","type":"t_mapping(t_address,t_struct(RecoveryConfig)1691_storage)"},{"astId":1701,"contract":"contracts/ProfileRegistryV2.sol:ProfileRegistryV2","label":"guardians","offset":0,"slot":"5","type":"t_mapping(t_address,t_array(t_address)dyn_storage)"},{"astId":1707,"contract":"contracts/ProfileRegistryV2.sol:ProfileRegistryV2","label":"isGuardian","offset":0,"slot":"6","type":"t_mapping(t_address,t_mapping(t_address,t_bool))"},{"astId":1727,"contract":"contracts/ProfileRegistryV2.sol:ProfileRegistryV2","label":"_pendingRecoveries","offset":0,"slot":"7","type":"t_mapping(t_address,t_struct(RecoveryRequest)1722_storage)"}],"types":{"t_address":{"encoding":"inplace","label":"address","numberOfBytes":"20"},"t_array(t_address)dyn_storage":{"base":"t_address","encoding":"dynamic_array","label":"address[]","numberOfBytes":"32"},"t_array(t_string_storage)dyn_storage":{"base":"t_string_storage","encoding":"dynamic_array","label":"string[]","numberOfBytes":"32"},"t_bool":{"encoding":"inplace","label":"bool","numberOfBytes":"1"},"t_bytes32":{"encoding":"inplace","label":"bytes32","numberOfBytes":"32"},"t_mapping(t_address,t_array(t_address)dyn_storage)":{"encoding":"mapping","key":"t_address","label":"mapping(address => address[])","numberOfBytes":"32","value":"t_array(t_address)dyn_storage"},"t_mapping(t_address,t_bool)":{"encoding":"mapping","key":"t_address","label":"mapping(address => bool)","numberOfBytes":"32","value":"t_bool"},"t_mapping(t_address,t_mapping(t_address,t_bool))":{"encoding":"mapping","key":"t_address","label":"mapping(address => mapping(address => bool))","numberOfBytes":"32","value":"t_mapping(t_address,t_bool)"},"t_mapping(t_address,t_string_storage)":{"encoding":"mapping","key":"t_address","label":"mapping(address => string)","numberOfBytes":"32","value":"t_string_storage"},"t_mapping(t_address,t_struct(RecoveryConfig)1691_storage)":{"encoding":"mapping","key":"t_address","label":"mapping(address => struct ProfileRegistryV2.RecoveryConfig)","numberOfBytes":"32","value":"t_struct(RecoveryConfig)1691_storage"},"t_mapping(t_address,t_struct(RecoveryRequest)1722_storage)":{"encoding":"mapping","key":"t_address","label":"mapping(address => struct ProfileRegistryV2.RecoveryRequest)","numberOfBytes":"32","value":"t_struct(RecoveryRequest)1722_storage"},"t_mapping(t_address,t_uint256)":{"encoding":"mapping","key":"t_address","label":"mapping(address => uint256)","numberOfBytes":"32","value":"t_uint256"},"t_string_storage":{"encoding":"bytes","label":"string","numberOfBytes":"32"},"t_struct(RecoveryConfig)1691_storage":{"encoding":"inplace","label":"struct ProfileRegistryV2.RecoveryConfig","members":[{"astId":1681,"contract":"contracts/ProfileRegistryV2.sol:ProfileRegistryV2","label":"timeLockHours","offset":0,"slot":"0","type":"t_uint256"},{"astId":1683,"contract":"contracts/ProfileRegistryV2.sol:ProfileRegistryV2","label":"threshold","offset":0,"slot":"1","type":"t_uint256"},{"astId":1686,"contract":"contracts/ProfileRegistryV2.sol:ProfileRegistryV2","label":"shareCids","offset":0,"slot":"2","type":"t_array(t_string_storage)dyn_storage"},{"astId":1688,"contract":"contracts/ProfileRegistryV2.sol:ProfileRegistryV2","label":"verificationHash","offset":0,"slot":"3","type":"t_bytes32"},{"astId":1690,"contract":"contracts/ProfileRegistryV2.sol:ProfileRegistryV2","label":"configured","offset":0,"slot":"4","type":"t_bool"}],"numberOfBytes":"160"},"t_struct(RecoveryRequest)1722_storage":{"encoding":"inplace","label":"struct ProfileRegistryV2.RecoveryRequest","members":[{"astId":1709,"contract":"contracts/ProfileRegistryV2.sol:ProfileRegistryV2","label":"initiator","offset":0,"slot":"0","type":"t_address"},{"astId":1711,"contract":"contracts/ProfileRegistryV2.sol:ProfileRegistryV2","label":"initiatedAt","offset":0,"slot":"1","type":"t_uint256"},{"astId":1713,"contract":"contracts/ProfileRegistryV2.sol:ProfileRegistryV2","label":"votesReceived","offset":0,"slot":"2","type":"t_uint256"},{"astId":1715,"contract":"contracts/ProfileRegistryV2.sol:ProfileRegistryV2","label":"cancelled","offset":0,"slot":"3","type":"t_bool"},{"astId":1717,"contract":"contracts/ProfileRegistryV2.sol:ProfileRegistryV2","label":"completed","offset":1,"slot":"3","type":"t_bool"},{"astId":1721,"contract":"contracts/ProfileRegistryV2.sol:ProfileRegistryV2","label":"hasVoted","offset":0,"slot":"4","type":"t_mapping(t_address,t_bool)"}],"numberOfBytes":"160"},"t_uint256":{"encoding":"inplace","label":"uint256","numberOfBytes":"32"}}}}}}