{"contracts/ProfileRegistry.sol":{"ProfileRegistry":{"abi":[{"anonymous":false,"inputs":[{"indexed":true,"internalType":"address","name":"user","type":"address"},{"indexed":false,"internalType":"string","name":"cid","type":"string"}],"name":"ProfileUpdated","type":"event"},{"inputs":[{"internalType":"address","name":"user","type":"address"}],"name":"getProfile","outputs":[{"internalType":"string","name":"","type":"string"}],"stateMutability":"view","type":"function"},{"inputs":[{"internalType":"address","name":"","type":"address"}],"name":"profiles","outputs":[{"internalType":"string","name":"","type":"string"}],"stateMutability":"view","type":"function"},{"inputs":[{"internalType":"string","name":"cid","type":"string"}],"name":"updateProfile","outputs":[],"stateMutability":"nonpayable","type":"function"}],"evm":{"bytecode":{"linkReferences":{},"object":"6080806040523461001657610431908161001c8239f35b600080fdfe604060808152600436101561001357600080fd5b600090813560e01c80629299e3146100cd5780630f53a470146100915763bbe156271461003f57600080fd5b3461008d57602036600319011261008d576004356001600160a01b0381169081900361008957818361007a9261008595528060205220610330565b9051918291826102ad565b0390f35b8280fd5b5080fd5b503461008d57602036600319011261008d576004356001600160a01b0381169081900361008957818361007a9261008595528060205220610330565b503461008d57602080600319360112610089576004359067ffffffffffffffff928383116102a957366023840112156102a95782600401359384116102a95760249236602486830101116102a55784903387528684528287209461013186546102f6565b601f8111610255575b508790601f84116001146101c15750907fdd635a4cd84864e37e4479dbfc2ec667acfa473c83c8422a8ac9d9d07599b01c95836024938a916101b4575b508460011b906000198660031b1c19161790555b82845195808752860152018284013784818584010152813394601f80199101168101030190a280f35b8491508301013538610177565b90601f969296198416838a52868a20928a905b8282106102375750509160249391857fdd635a4cd84864e37e4479dbfc2ec667acfa473c83c8422a8ac9d9d07599b01c99941061021b575b5050600184811b01905561018b565b8301840135600019600387901b60f8161c19169055388061020c565b89840181013585558a965060019094019392880192908801906101d4565b90919250858852848820601f880160051c81019186891061029b575b90601f89959493920160051c01905b81811061028d575061013a565b898155889450600101610280565b9091508190610271565b8580fd5b8480fd5b6020808252825181830181905290939260005b8281106102e257505060409293506000838284010152601f8019910116010190565b8181018601518482016040015285016102c0565b90600182811c92168015610326575b602083101461031057565b634e487b7160e01b600052602260045260246000fd5b91607f1691610305565b90604051916000908054610343816102f6565b908186526020926001916001811690816000146103dd57506001146103a1575b50505050829003601f01601f1916820167ffffffffffffffff81118382101761038b57604052565b634e487b7160e01b600052604160045260246000fd5b909293506000528260002091836000935b8385106103c9575050505083010138808080610363565b8054888601830152930192849082016103b2565b60ff191688860152505050151560051b84010190503880808061036356fea26469706673582212208c91b756b7fddc01592b1eeb8075f62978544fc249c90ef16762a64dd2c2347a64736f6c63430008180033","opcodes":"PUSH1 0x80 DUP1 PUSH1 0x40 MSTORE CALLVALUE PUSH2 0x16 JUMPI PUSH2 0x431 SWAP1 DUP2 PUSH2 0x1C DUP3 CODECOPY RETURN JUMPDEST PUSH1 0x0 DUP1 REVERT INVALID PUSH1 0x40 PUSH1 0x80 DUP2 MSTORE PUSH1 0x4 CALLDATASIZE LT ISZERO PUSH2 0x13 JUMPI PUSH1 0x0 DUP1 REVERT JUMPDEST PUSH1 0x0 SWAP1 DUP2 CALLDATALOAD PUSH1 0xE0 SHR DUP1 PUSH3 0x9299E3 EQ PUSH2 0xCD JUMPI DUP1 PUSH4 0xF53A470 EQ PUSH2 0x91 JUMPI PUSH4 0xBBE15627 EQ PUSH2 0x3F JUMPI PUSH1 0x0 DUP1 REVERT JUMPDEST CALLVALUE PUSH2 0x8D JUMPI PUSH1 0x20 CALLDATASIZE PUSH1 0x3 NOT ADD SLT PUSH2 0x8D JUMPI PUSH1 0x4 CALLDATALOAD PUSH1 0x1 PUSH1 0x1 PUSH1 0xA0 SHL SUB DUP2 AND SWAP1 DUP2 SWAP1 SUB PUSH2 0x89 JUMPI DUP2 DUP4 PUSH2 0x7A SWAP3 PUSH2 0x85 SWAP6 MSTORE DUP1 PUSH1 0x20 MSTORE KECCAK256 PUSH2 0x330 JUMP JUMPDEST SWAP1 MLOAD SWAP2 DUP3 SWAP2 DUP3 PUSH2 0x2AD JUMP JUMPDEST SUB SWAP1 RETURN JUMPDEST DUP3 DUP1 REVERT JUMPDEST POP DUP1 REVERT JUMPDEST POP CALLVALUE PUSH2 0x8D JUMPI PUSH1 0x20 CALLDATASIZE PUSH1 0x3 NOT ADD SLT PUSH2 0x8D JUMPI PUSH1 0x4 CALLDATALOAD PUSH1 0x1 PUSH1 0x1 PUSH1 0xA0 SHL SUB DUP2 AND SWAP1 DUP2 SWAP1 SUB PUSH2 0x89 JUMPI DUP2 DUP4 PUSH2 0x7A SWAP3 PUSH2 0x85 SWAP6 MSTORE DUP1 PUSH1 0x20 MSTORE KECCAK256 PUSH2 0x330 JUMP JUMPDEST POP CALLVALUE PUSH2 0x8D JUMPI PUSH1 0x20 DUP1 PUSH1 0x3 NOT CALLDATASIZE ADD SLT PUSH2 0x89 JUMPI PUSH1 0x4 CALLDATALOAD SWAP1 PUSH8 0xFFFFFFFFFFFFFFFF SWAP3 DUP4 DUP4 GT PUSH2 0x2A9 JUMPI CALLDATASIZE PUSH1 0x23 DUP5 ADD SLT ISZERO PUSH2 0x2A9 JUMPI DUP3 PUSH1 0x4 ADD CALLDATALOAD SWAP4 DUP5 GT PUSH2 0x2A9 JUMPI PUSH1 0x24 SWAP3 CALLDATASIZE PUSH1 0x24 DUP7 DUP4 ADD ADD GT PUSH2 0x2A5 JUMPI DUP5 SWAP1 CALLER DUP8 MSTORE DUP7 DUP5 MSTORE DUP3 DUP8 KECCAK256 SWAP5 PUSH2 0x131 DUP7 SLOAD PUSH2 0x2F6 JUMP JUMPDEST PUSH1 0x1F DUP2 GT PUSH2 0x255 JUMPI JUMPDEST POP DUP8 SWAP1 PUSH1 0x1F DUP5 GT PUSH1 0x1 EQ PUSH2 0x1C1 JUMPI POP SWAP1 PUSH32 0xDD635A4CD84864E37E4479DBFC2EC667ACFA473C83C8422A8AC9D9D07599B01C SWAP6 DUP4 PUSH1 0x24 SWAP4 DUP11 SWAP2 PUSH2 0x1B4 JUMPI JUMPDEST POP DUP5 PUSH1 0x1 SHL SWAP1 PUSH1 0x0 NOT DUP7 PUSH1 0x3 SHL SHR NOT AND OR SWAP1 SSTORE JUMPDEST DUP3 DUP5 MLOAD SWAP6 DUP1 DUP8 MSTORE DUP7 ADD MSTORE ADD DUP3 DUP5 ADD CALLDATACOPY DUP5 DUP2 DUP6 DUP5 ADD ADD MSTORE DUP2 CALLER SWAP5 PUSH1 0x1F DUP1 NOT SWAP2 ADD AND DUP2 ADD SUB ADD SWAP1 LOG2 DUP1 RETURN JUMPDEST DUP5 SWAP2 POP DUP4 ADD ADD CALLDATALOAD CODESIZE PUSH2 0x177 JUMP JUMPDEST SWAP1 PUSH1 0x1F SWAP7 SWAP3 SWAP7 NOT DUP5 AND DUP4 DUP11 MSTORE DUP7 DUP11 KECCAK256 SWAP3 DUP11 SWAP1 JUMPDEST DUP3 DUP3 LT PUSH2 0x237 JUMPI POP POP SWAP2 PUSH1 0x24 SWAP4 SWAP2 DUP6 PUSH32 0xDD635A4CD84864E37E4479DBFC2EC667ACFA473C83C8422A8AC9D9D07599B01C SWAP10 SWAP5 LT PUSH2 0x21B JUMPI JUMPDEST POP POP PUSH1 0x1 DUP5 DUP2 SHL ADD SWAP1 SSTORE PUSH2 0x18B JUMP JUMPDEST DUP4 ADD DUP5 ADD CALLDATALOAD PUSH1 0x0 NOT PUSH1 0x3 DUP8 SWAP1 SHL PUSH1 0xF8 AND SHR NOT AND SWAP1 SSTORE CODESIZE DUP1 PUSH2 0x20C JUMP JUMPDEST DUP10 DUP5 ADD DUP2 ADD CALLDATALOAD DUP6 SSTORE DUP11 SWAP7 POP PUSH1 0x1 SWAP1 SWAP5 ADD SWAP4 SWAP3 DUP9 ADD SWAP3 SWAP1 DUP9 ADD SWAP1 PUSH2 0x1D4 JUMP JUMPDEST SWAP1 SWAP2 SWAP3 POP DUP6 DUP9 MSTORE DUP5 DUP9 KECCAK256 PUSH1 0x1F DUP9 ADD PUSH1 0x5 SHR DUP2 ADD SWAP2 DUP7 DUP10 LT PUSH2 0x29B JUMPI JUMPDEST SWAP1 PUSH1 0x1F DUP10 SWAP6 SWAP5 SWAP4 SWAP3 ADD PUSH1 0x5 SHR ADD SWAP1 JUMPDEST DUP2 DUP2 LT PUSH2 0x28D JUMPI POP PUSH2 0x13A JUMP JUMPDEST DUP10 DUP2 SSTORE DUP9 SWAP5 POP PUSH1 0x1 ADD PUSH2 0x280 JUMP JUMPDEST SWAP1 SWAP2 POP DUP2 SWAP1 PUSH2 0x271 JUMP JUMPDEST DUP6 DUP1 REVERT JUMPDEST DUP5 DUP1 REVERT JUMPDEST PUSH1 0x20 DUP1 DUP3 MSTORE DUP3 MLOAD DUP2 DUP4 ADD DUP2 SWAP1 MSTORE SWAP1 SWAP4 SWAP3 PUSH1 0x0 JUMPDEST DUP3 DUP2 LT PUSH2 0x2E2 JUMPI POP POP PUSH1 0x40 SWAP3 SWAP4 POP PUSH1 0x0 DUP4 DUP3 DUP5 ADD ADD MSTORE PUSH1 0x1F DUP1 NOT SWAP2 ADD AND ADD ADD SWAP1 JUMP JUMPDEST DUP2 DUP2 ADD DUP7 ADD MLOAD DUP5 DUP3 ADD PUSH1 0x40 ADD MSTORE DUP6 ADD PUSH2 0x2C0 JUMP JUMPDEST SWAP1 PUSH1 0x1 DUP3 DUP2 SHR SWAP3 AND DUP1 ISZERO PUSH2 0x326 JUMPI JUMPDEST PUSH1 0x20 DUP4 LT EQ PUSH2 0x310 JUMPI JUMP JUMPDEST PUSH4 0x4E487B71 PUSH1 0xE0 SHL PUSH1 0x0 MSTORE PUSH1 0x22 PUSH1 0x4 MSTORE PUSH1 0x24 PUSH1 0x0 REVERT JUMPDEST SWAP2 PUSH1 0x7F AND SWAP2 PUSH2 0x305 JUMP JUMPDEST SWAP1 PUSH1 0x40 MLOAD SWAP2 PUSH1 0x0 SWAP1 DUP1 SLOAD PUSH2 0x343 DUP2 PUSH2 0x2F6 JUMP JUMPDEST SWAP1 DUP2 DUP7 MSTORE PUSH1 0x20 SWAP3 PUSH1 0x1 SWAP2 PUSH1 0x1 DUP2 AND SWAP1 DUP2 PUSH1 0x0 EQ PUSH2 0x3DD JUMPI POP PUSH1 0x1 EQ PUSH2 0x3A1 JUMPI JUMPDEST POP POP POP POP DUP3 SWAP1 SUB PUSH1 0x1F ADD PUSH1 0x1F NOT AND DUP3 ADD PUSH8 0xFFFFFFFFFFFFFFFF DUP2 GT DUP4 DUP3 LT OR PUSH2 0x38B JUMPI PUSH1 0x40 MSTORE JUMP JUMPDEST PUSH4 0x4E487B71 PUSH1 0xE0 SHL PUSH1 0x0 MSTORE PUSH1 0x41 PUSH1 0x4 MSTORE PUSH1 0x24 PUSH1 0x0 REVERT JUMPDEST SWAP1 SWAP3 SWAP4 POP PUSH1 0x0 MSTORE DUP3 PUSH1 0x0 KECCAK256 SWAP2 DUP4 PUSH1 0x0 SWAP4 JUMPDEST DUP4 DUP6 LT PUSH2 0x3C9 JUMPI POP POP POP POP DUP4 ADD ADD CODESIZE DUP1 DUP1 DUP1 PUSH2 0x363 JUMP JUMPDEST DUP1 SLOAD DUP9 DUP7 ADD DUP4 ADD MSTORE SWAP4 ADD SWAP3 DUP5 SWAP1 DUP3 ADD PUSH2 0x3B2 JUMP JUMPDEST PUSH1 0xFF NOT AND DUP9 DUP7 ADD MSTORE POP POP POP ISZERO ISZERO PUSH1 0x5 SHL DUP5 ADD ADD SWAP1 POP CODESIZE DUP1 DUP1 DUP1 PUSH2 0x363 JUMP INVALID LOG2 PUSH5 0x6970667358 0x22 SLT KECCAK256 DUP13 SWAP2 0xB7 JUMP 0xB7 REVERT 0xDC ADD MSIZE 0x2B 0x1E 0xEB DUP1 PUSH22 0xF62978544FC249C90EF16762A64DD2C2347A64736F6C PUSH4 0x43000818 STOP CALLER "},"methodIdentifiers":{"getProfile(address)":"0f53a470","profiles(address)":"bbe15627","updateProfile(string)":"009299e3"}},"storageLayout":{"storage":[{"astId":1598,"contract":"contracts/ProfileRegistry.sol:ProfileRegistry","label":"profiles","offset":0,"slot":"0","type":"t_mapping(t_address,t_string_storage)"}],"types":{"t_address":{"encoding":"inplace","label":"address","numberOfBytes":"20"},"t_mapping(t_address,t_string_storage)":{"encoding":"mapping","key":"t_address","label":"mapping(address => string)","numberOfBytes":"32","value":"t_string_storage"},"t_string_storage":{"encoding":"bytes","label":"string","numberOfBytes":"32"}}}}}}