{
  "_format": "hh-sol-artifact-1",
  "contractName": "ProfileRegistryV2",
  "sourceName": "contracts/ProfileRegistryV2.sol",
  "abi": [
    {
      "inputs": [],
      "stateMutability": "nonpayable",
      "type": "constructor"
    },
    {
      "inputs": [
        {
          "internalType": "address",
          "name": "target",
          "type": "address"
        }
      ],
      "name": "AddressEmptyCode",
      "type": "error"
    },
    {
      "inputs": [],
      "name": "AlreadyVoted",
      "type": "error"
    },
    {
      "inputs": [
        {
          "internalType": "address",
          "name": "implementation",
          "type": "address"
        }
      ],
      "name": "ERC1967InvalidImplementation",
      "type": "error"
    },
    {
      "inputs": [],
      "name": "ERC1967NonPayable",
      "type": "error"
    },
    {
      "inputs": [],
      "name": "EnforcedPause",
      "type": "error"
    },
    {
      "inputs": [],
      "name": "ExpectedPause",
      "type": "error"
    },
    {
      "inputs": [],
      "name": "FailedCall",
      "type": "error"
    },
    {
      "inputs": [],
      "name": "InsufficientVotes",
      "type": "error"
    },
    {
      "inputs": [],
      "name": "InvalidGuardianCount",
      "type": "error"
    },
    {
      "inputs": [],
      "name": "InvalidInitialization",
      "type": "error"
    },
    {
      "inputs": [],
      "name": "InvalidMultisig",
      "type": "error"
    },
    {
      "inputs": [],
      "name": "InvalidThreshold",
      "type": "error"
    },
    {
      "inputs": [],
      "name": "InvalidTimeLock",
      "type": "error"
    },
    {
      "inputs": [],
      "name": "MultisigRequiredForAction",
      "type": "error"
    },
    {
      "inputs": [],
      "name": "NoRecoveryPending",
      "type": "error"
    },
    {
      "inputs": [],
      "name": "NotAGuardian",
      "type": "error"
    },
    {
      "inputs": [],
      "name": "NotInitializing",
      "type": "error"
    },
    {
      "inputs": [
        {
          "internalType": "address",
          "name": "owner",
          "type": "address"
        }
      ],
      "name": "OwnableInvalidOwner",
      "type": "error"
    },
    {
      "inputs": [
        {
          "internalType": "address",
          "name": "account",
          "type": "address"
        }
      ],
      "name": "OwnableUnauthorizedAccount",
      "type": "error"
    },
    {
      "inputs": [],
      "name": "RecoveryAlreadyPending",
      "type": "error"
    },
    {
      "inputs": [],
      "name": "RecoveryNotConfigured",
      "type": "error"
    },
    {
      "inputs": [],
      "name": "TimeLockNotExpired",
      "type": "error"
    },
    {
      "inputs": [],
      "name": "UUPSUnauthorizedCallContext",
      "type": "error"
    },
    {
      "inputs": [
        {
          "internalType": "bytes32",
          "name": "slot",
          "type": "bytes32"
        }
      ],
      "name": "UUPSUnsupportedProxiableUUID",
      "type": "error"
    },
    {
      "anonymous": false,
      "inputs": [
        {
          "indexed": true,
          "internalType": "address",
          "name": "user",
          "type": "address"
        },
        {
          "indexed": true,
          "internalType": "address",
          "name": "guardian",
          "type": "address"
        }
      ],
      "name": "GuardianAdded",
      "type": "event"
    },
    {
      "anonymous": false,
      "inputs": [
        {
          "indexed": true,
          "internalType": "address",
          "name": "user",
          "type": "address"
        },
        {
          "indexed": true,
          "internalType": "address",
          "name": "guardian",
          "type": "address"
        }
      ],
      "name": "GuardianRemoved",
      "type": "event"
    },
    {
      "anonymous": false,
      "inputs": [
        {
          "indexed": false,
          "internalType": "uint64",
          "name": "version",
          "type": "uint64"
        }
      ],
      "name": "Initialized",
      "type": "event"
    },
    {
      "anonymous": false,
      "inputs": [
        {
          "indexed": false,
          "internalType": "uint256",
          "name": "userCount",
          "type": "uint256"
        }
      ],
      "name": "MultisigActivated",
      "type": "event"
    },
    {
      "anonymous": false,
      "inputs": [
        {
          "indexed": true,
          "internalType": "address",
          "name": "oldMultisig",
          "type": "address"
        },
        {
          "indexed": true,
          "internalType": "address",
          "name": "newMultisig",
          "type": "address"
        }
      ],
      "name": "MultisigUpdated",
      "type": "event"
    },
    {
      "anonymous": false,
      "inputs": [
        {
          "indexed": true,
          "internalType": "address",
          "name": "previousOwner",
          "type": "address"
        },
        {
          "indexed": true,
          "internalType": "address",
          "name": "newOwner",
          "type": "address"
        }
      ],
      "name": "OwnershipTransferred",
      "type": "event"
    },
    {
      "anonymous": false,
      "inputs": [
        {
          "indexed": false,
          "internalType": "address",
          "name": "account",
          "type": "address"
        }
      ],
      "name": "Paused",
      "type": "event"
    },
    {
      "anonymous": false,
      "inputs": [
        {
          "indexed": true,
          "internalType": "address",
          "name": "user",
          "type": "address"
        },
        {
          "indexed": false,
          "internalType": "string",
          "name": "cid",
          "type": "string"
        },
        {
          "indexed": false,
          "internalType": "uint256",
          "name": "timestamp",
          "type": "uint256"
        }
      ],
      "name": "ProfileUpdated",
      "type": "event"
    },
    {
      "anonymous": false,
      "inputs": [
        {
          "indexed": true,
          "internalType": "address",
          "name": "user",
          "type": "address"
        }
      ],
      "name": "RecoveryCancelled",
      "type": "event"
    },
    {
      "anonymous": false,
      "inputs": [
        {
          "indexed": true,
          "internalType": "address",
          "name": "user",
          "type": "address"
        },
        {
          "indexed": false,
          "internalType": "string",
          "name": "newCid",
          "type": "string"
        }
      ],
      "name": "RecoveryCompleted",
      "type": "event"
    },
    {
      "anonymous": false,
      "inputs": [
        {
          "indexed": true,
          "internalType": "address",
          "name": "user",
          "type": "address"
        },
        {
          "indexed": false,
          "internalType": "uint256",
          "name": "guardianCount",
          "type": "uint256"
        },
        {
          "indexed": false,
          "internalType": "uint256",
          "name": "threshold",
          "type": "uint256"
        }
      ],
      "name": "RecoveryConfigured",
      "type": "event"
    },
    {
      "anonymous": false,
      "inputs": [
        {
          "indexed": true,
          "internalType": "address",
          "name": "user",
          "type": "address"
        },
        {
          "indexed": true,
          "internalType": "address",
          "name": "initiator",
          "type": "address"
        },
        {
          "indexed": false,
          "internalType": "uint256",
          "name": "completesAt",
          "type": "uint256"
        }
      ],
      "name": "RecoveryInitiated",
      "type": "event"
    },
    {
      "anonymous": false,
      "inputs": [
        {
          "indexed": true,
          "internalType": "address",
          "name": "user",
          "type": "address"
        },
        {
          "indexed": true,
          "internalType": "address",
          "name": "guardian",
          "type": "address"
        },
        {
          "indexed": false,
          "internalType": "uint256",
          "name": "totalVotes",
          "type": "uint256"
        }
      ],
      "name": "RecoveryVoteSubmitted",
      "type": "event"
    },
    {
      "anonymous": false,
      "inputs": [
        {
          "indexed": false,
          "internalType": "address",
          "name": "account",
          "type": "address"
        }
      ],
      "name": "Unpaused",
      "type": "event"
    },
    {
      "anonymous": false,
      "inputs": [
        {
          "indexed": true,
          "internalType": "address",
          "name": "implementation",
          "type": "address"
        }
      ],
      "name": "Upgraded",
      "type": "event"
    },
    {
      "anonymous": false,
      "inputs": [
        {
          "indexed": true,
          "internalType": "address",
          "name": "user",
          "type": "address"
        },
        {
          "indexed": false,
          "internalType": "uint256",
          "name": "totalUsers",
          "type": "uint256"
        }
      ],
      "name": "UserRegistered",
      "type": "event"
    },
    {
      "inputs": [],
      "name": "DECENTRALIZATION_THRESHOLD",
      "outputs": [
        {
          "internalType": "uint256",
          "name": "",
          "type": "uint256"
        }
      ],
      "stateMutability": "view",
      "type": "function"
    },
    {
      "inputs": [],
      "name": "MAX_GUARDIANS",
      "outputs": [
        {
          "internalType": "uint256",
          "name": "",
          "type": "uint256"
        }
      ],
      "stateMutability": "view",
      "type": "function"
    },
    {
      "inputs": [],
      "name": "MIN_GUARDIANS",
      "outputs": [
        {
          "internalType": "uint256",
          "name": "",
          "type": "uint256"
        }
      ],
      "stateMutability": "view",
      "type": "function"
    },
    {
      "inputs": [],
      "name": "MIN_TIME_LOCK_HOURS",
      "outputs": [
        {
          "internalType": "uint256",
          "name": "",
          "type": "uint256"
        }
      ],
      "stateMutability": "view",
      "type": "function"
    },
    {
      "inputs": [],
      "name": "UPGRADE_INTERFACE_VERSION",
      "outputs": [
        {
          "internalType": "string",
          "name": "",
          "type": "string"
        }
      ],
      "stateMutability": "view",
      "type": "function"
    },
    {
      "inputs": [],
      "name": "cancelRecovery",
      "outputs": [],
      "stateMutability": "nonpayable",
      "type": "function"
    },
    {
      "inputs": [
        {
          "internalType": "address",
          "name": "user",
          "type": "address"
        },
        {
          "internalType": "string",
          "name": "newCid",
          "type": "string"
        }
      ],
      "name": "completeRecovery",
      "outputs": [],
      "stateMutability": "nonpayable",
      "type": "function"
    },
    {
      "inputs": [
        {
          "internalType": "address[]",
          "name": "_guardians",
          "type": "address[]"
        },
        {
          "internalType": "uint256",
          "name": "_threshold",
          "type": "uint256"
        },
        {
          "internalType": "uint256",
          "name": "_timeLockHours",
          "type": "uint256"
        },
        {
          "internalType": "string[]",
          "name": "_shareCids",
          "type": "string[]"
        },
        {
          "internalType": "bytes32",
          "name": "_verificationHash",
          "type": "bytes32"
        }
      ],
      "name": "configureRecovery",
      "outputs": [],
      "stateMutability": "nonpayable",
      "type": "function"
    },
    {
      "inputs": [
        {
          "internalType": "address",
          "name": "user",
          "type": "address"
        }
      ],
      "name": "getGuardians",
      "outputs": [
        {
          "internalType": "address[]",
          "name": "",
          "type": "address[]"
        }
      ],
      "stateMutability": "view",
      "type": "function"
    },
    {
      "inputs": [
        {
          "internalType": "address",
          "name": "user",
          "type": "address"
        }
      ],
      "name": "getPendingRecovery",
      "outputs": [
        {
          "internalType": "address",
          "name": "initiator",
          "type": "address"
        },
        {
          "internalType": "uint256",
          "name": "initiatedAt",
          "type": "uint256"
        },
        {
          "internalType": "uint256",
          "name": "votesReceived",
          "type": "uint256"
        },
        {
          "internalType": "bool",
          "name": "cancelled",
          "type": "bool"
        },
        {
          "internalType": "bool",
          "name": "completed",
          "type": "bool"
        },
        {
          "internalType": "uint256",
          "name": "timeLockEnd",
          "type": "uint256"
        }
      ],
      "stateMutability": "view",
      "type": "function"
    },
    {
      "inputs": [
        {
          "internalType": "address",
          "name": "user",
          "type": "address"
        }
      ],
      "name": "getProfile",
      "outputs": [
        {
          "internalType": "string",
          "name": "",
          "type": "string"
        }
      ],
      "stateMutability": "view",
      "type": "function"
    },
    {
      "inputs": [
        {
          "internalType": "address",
          "name": "user",
          "type": "address"
        }
      ],
      "name": "getRecoveryConfig",
      "outputs": [
        {
          "internalType": "uint256",
          "name": "timeLockHours",
          "type": "uint256"
        },
        {
          "internalType": "uint256",
          "name": "threshold",
          "type": "uint256"
        },
        {
          "internalType": "string[]",
          "name": "shareCids",
          "type": "string[]"
        },
        {
          "internalType": "bytes32",
          "name": "verificationHash",
          "type": "bytes32"
        },
        {
          "internalType": "bool",
          "name": "configured",
          "type": "bool"
        }
      ],
      "stateMutability": "view",
      "type": "function"
    },
    {
      "inputs": [
        {
          "internalType": "address",
          "name": "",
          "type": "address"
        },
        {
          "internalType": "uint256",
          "name": "",
          "type": "uint256"
        }
      ],
      "name": "guardians",
      "outputs": [
        {
          "internalType": "address",
          "name": "",
          "type": "address"
        }
      ],
      "stateMutability": "view",
      "type": "function"
    },
    {
      "inputs": [
        {
          "internalType": "address",
          "name": "_multisig",
          "type": "address"
        }
      ],
      "name": "initialize",
      "outputs": [],
      "stateMutability": "nonpayable",
      "type": "function"
    },
    {
      "inputs": [
        {
          "internalType": "address",
          "name": "user",
          "type": "address"
        }
      ],
      "name": "initiateRecovery",
      "outputs": [],
      "stateMutability": "nonpayable",
      "type": "function"
    },
    {
      "inputs": [],
      "name": "isDecentralized",
      "outputs": [
        {
          "internalType": "bool",
          "name": "",
          "type": "bool"
        }
      ],
      "stateMutability": "view",
      "type": "function"
    },
    {
      "inputs": [
        {
          "internalType": "address",
          "name": "",
          "type": "address"
        },
        {
          "internalType": "address",
          "name": "",
          "type": "address"
        }
      ],
      "name": "isGuardian",
      "outputs": [
        {
          "internalType": "bool",
          "name": "",
          "type": "bool"
        }
      ],
      "stateMutability": "view",
      "type": "function"
    },
    {
      "inputs": [
        {
          "internalType": "address",
          "name": "",
          "type": "address"
        }
      ],
      "name": "lastUpdated",
      "outputs": [
        {
          "internalType": "uint256",
          "name": "",
          "type": "uint256"
        }
      ],
      "stateMutability": "view",
      "type": "function"
    },
    {
      "inputs": [],
      "name": "multisig",
      "outputs": [
        {
          "internalType": "address",
          "name": "",
          "type": "address"
        }
      ],
      "stateMutability": "view",
      "type": "function"
    },
    {
      "inputs": [],
      "name": "multisigRequired",
      "outputs": [
        {
          "internalType": "bool",
          "name": "",
          "type": "bool"
        }
      ],
      "stateMutability": "view",
      "type": "function"
    },
    {
      "inputs": [],
      "name": "owner",
      "outputs": [
        {
          "internalType": "address",
          "name": "",
          "type": "address"
        }
      ],
      "stateMutability": "view",
      "type": "function"
    },
    {
      "inputs": [],
      "name": "pause",
      "outputs": [],
      "stateMutability": "nonpayable",
      "type": "function"
    },
    {
      "inputs": [],
      "name": "paused",
      "outputs": [
        {
          "internalType": "bool",
          "name": "",
          "type": "bool"
        }
      ],
      "stateMutability": "view",
      "type": "function"
    },
    {
      "inputs": [
        {
          "internalType": "address",
          "name": "",
          "type": "address"
        }
      ],
      "name": "profiles",
      "outputs": [
        {
          "internalType": "string",
          "name": "",
          "type": "string"
        }
      ],
      "stateMutability": "view",
      "type": "function"
    },
    {
      "inputs": [],
      "name": "proxiableUUID",
      "outputs": [
        {
          "internalType": "bytes32",
          "name": "",
          "type": "bytes32"
        }
      ],
      "stateMutability": "view",
      "type": "function"
    },
    {
      "inputs": [
        {
          "internalType": "address",
          "name": "",
          "type": "address"
        }
      ],
      "name": "recoveryConfigs",
      "outputs": [
        {
          "internalType": "uint256",
          "name": "timeLockHours",
          "type": "uint256"
        },
        {
          "internalType": "uint256",
          "name": "threshold",
          "type": "uint256"
        },
        {
          "internalType": "bytes32",
          "name": "verificationHash",
          "type": "bytes32"
        },
        {
          "internalType": "bool",
          "name": "configured",
          "type": "bool"
        }
      ],
      "stateMutability": "view",
      "type": "function"
    },
    {
      "inputs": [],
      "name": "renounceOwnership",
      "outputs": [],
      "stateMutability": "nonpayable",
      "type": "function"
    },
    {
      "inputs": [
        {
          "internalType": "address",
          "name": "_newMultisig",
          "type": "address"
        }
      ],
      "name": "setMultisig",
      "outputs": [],
      "stateMutability": "nonpayable",
      "type": "function"
    },
    {
      "inputs": [],
      "name": "totalUsers",
      "outputs": [
        {
          "internalType": "uint256",
          "name": "",
          "type": "uint256"
        }
      ],
      "stateMutability": "view",
      "type": "function"
    },
    {
      "inputs": [
        {
          "internalType": "address",
          "name": "newOwner",
          "type": "address"
        }
      ],
      "name": "transferOwnership",
      "outputs": [],
      "stateMutability": "nonpayable",
      "type": "function"
    },
    {
      "inputs": [],
      "name": "unpause",
      "outputs": [],
      "stateMutability": "nonpayable",
      "type": "function"
    },
    {
      "inputs": [
        {
          "internalType": "string",
          "name": "cid",
          "type": "string"
        }
      ],
      "name": "updateProfile",
      "outputs": [],
      "stateMutability": "nonpayable",
      "type": "function"
    },
    {
      "inputs": [
        {
          "internalType": "address",
          "name": "newImplementation",
          "type": "address"
        },
        {
          "internalType": "bytes",
          "name": "data",
          "type": "bytes"
        }
      ],
      "name": "upgradeToAndCall",
      "outputs": [],
      "stateMutability": "payable",
      "type": "function"
    },
    {
      "inputs": [],
      "name": "usersUntilDecentralization",
      "outputs": [
        {
          "internalType": "uint256",
          "name": "",
          "type": "uint256"
        }
      ],
      "stateMutability": "view",
      "type": "function"
    },
    {
      "inputs": [],
      "name": "version",
      "outputs": [
        {
          "internalType": "string",
          "name": "",
          "type": "string"
        }
      ],
      "stateMutability": "pure",
      "type": "function"
    },
    {
      "inputs": [
        {
          "internalType": "address",
          "name": "user",
          "type": "address"
        }
      ],
      "name": "voteForRecovery",
      "outputs": [],
      "stateMutability": "nonpayable",
      "type": "function"
    }
  ],
  "bytecode": "0x60a080604052346100cc57306080527ff0c57e16840df040f15088dc2f81fe391c3923bec73e23a9662efc9c229c6a009081549060ff8260401c166100bd57506001600160401b036002600160401b031982821601610078575b60405161210490816100d2823960805181818161139901526114520152f35b6001600160401b031990911681179091556040519081527fc7f505b2f371ae2175ee4913f4499e1f2633a7b5936321eed1cdaeb6115181d290602090a1388080610059565b63f92ee8a960e01b8152600490fd5b600080fdfe6080604052600436101561001257600080fd5b60003560e01c80629299e3146119945780630a6f93e61461195a5780630ba234d6146118ce5780630f53a47014610d2257806315740b08146118ab5780632788bbda1461178e5780633f4ba83a146116f0578063421f951514611280578063422c1d37146116d45780634783c35b146116ab57806347d05bf8146116525780634f1ef2861461140357806352d1902d1461138657806354fd4d50146113405780635c975abb14611310578063715018a6146112a65780637241784c146112805780637c8e804e1461121f5780638456cb59146111915780638da5cb5b1461115b5780638f2a90991461104f57806395e7ddd414610dba578063ad3cb1cc14610d74578063bbe1562714610d22578063bff1f9e114610d04578063c4d66de814610b9d578063c4e731a01461066f578063c81c083e14610653578063c859c10b14610636578063d4ee9734146105dc578063d5ce9aad1461042f578063ed1d0d131461035d578063f18858ab146102aa578063f2fde38b1461027f578063f3283fba146101c85763f91b0432146101a757600080fd5b346101c35760003660031901126101c357602060405160038152f35b600080fd5b346101c35760203660031901126101c3576101e1611bdb565b6003549060ff8260a01c16600014610272576001600160a01b0382163303610260575b6001600160a01b0390811691821561024e576001600160a01b031981168317600355167f5f90d712a0af15f5a6f562235036d7264213de74a0dc9698581daa47c52b79d3600080a3005b6040516301f7885560e21b8152600490fd5b60405163c12f2a8160e01b8152600490fd5b61027a611f91565b610204565b346101c35760203660031901126101c3576102a861029b611bdb565b6102a3611f91565b611ef2565b005b346101c3576020806003193601126101c3576001600160a01b0390816102ce611bdb565b1660005260058152604060002060405191828183549182815201908193600052826000209060005b818110610347575050508361030c910384611c7a565b60405192818401908285525180915260408401929160005b8281106103315785850386f35b8351871685529381019392810192600101610324565b82548816845292840192600192830192016102f6565b346101c35760203660031901126101c3576001600160a01b038061037f611bdb565b16600052600760205260406000206004602052604060002091600090600183015493846103e9575b5060c09360ff91845416936003600282015491015491604051958652602086015260408501528181161515606085015260081c161515608083015260a0820152f35b90915054610e1090818102918183041490151715610419578361041060ff9260c096611ec1565b929150936103a7565b634e487b7160e01b600052601160045260246000fd5b346101c3576020806003193601126101c357610449611bdb565b610451611f66565b6001600160a01b03166000818152600683526040808220338352845290205460ff16156105ca57806000526004825260ff60046040600020015416156105b85780600052600782526040600020600181019081541515806105a9575b80610597575b61058557600491336bffffffffffffffffffffffff60a01b835416178255429055600160028201556003810161ffff198154169055336000520182526040600020600160ff198254161790558060005260048252604060002054610e10908181029181830414901517156104195761052b9042611ec1565b604051908152817fe290ea2cc3cfeb5114f992dc8be9e503de30042c13b9298644a2679b09e17a04843393a37f09ba9aae59b148fb52366bdf0fa0f92591643c187095c73c0098c75687829d8460405192600184523393a3005b604051631c730b7360e31b8152600490fd5b5060ff600382015460081c16156104b3565b5060ff600382015416156104ad565b604051631805d35760e11b8152600490fd5b60405163475d03f760e01b8152600490fd5b346101c35760403660031901126101c3576105f5611bdb565b6001600160a01b0360243581811692908390036101c357166000526006602052604060002090600052602052602060ff604060002054166040519015158152f35b346101c35760003660031901126101c35760206040516101f48152f35b346101c35760003660031901126101c357602060405160188152f35b346101c35760a03660031901126101c3576004356001600160401b0381116101c35761069f903690600401611dcc565b906064356001600160401b0381116101c3576106bf903690600401611dcc565b906106c8611f66565b600384108015610b93575b610b52576002602435108015610b88575b610b7657601860443510610b6457838203610b525733600052600560205260406000209160005b835481101561075657600190336000526006602052604060002061072f8287611c31565b848060a01b0391549060031b1c16600052602052604060002060ff1981541690550161070b565b50915091336000526005602052604060002080546000825580610b36575b505060005b848110610a6a5750506040519160a083018381106001600160401b0382111761099f57604052604435835260243560208401526107b582611eaa565b916107c36040519384611c7a565b8083526020830191368260051b8201116101c35780925b8260051b82018410610a2e575050505060408201908152608435606083015260016080830152336000526004602052604060002090825182556020830151600183015551805190600160401b821161099f5760028301548260028501558083106109b5575b5060200190600283016000526020600020916000905b8282106108b557868660806004886060840151600382015501910151151560ff8019835416911617905560405190815260243560208201527f9ba32a4bfb6d1027e66bd016e66b9b205ee6db57e5089163bc64390665ce0ac760403392a2005b80518051906001600160401b03821161099f576108dc826108d68854611ced565b88611e13565b602090601f831160011461092f579261091583600195946020948796600092610924575b50508160011b916000199060031b1c19161790565b87555b01940191019092610855565b015190508d80610900565b908660005260206000209160005b601f1985168110610987575083602093600196938796938794601f1981161061096e575b505050811b018755610918565b015160001960f88460031b161c191690558c8080610961565b9192602060018192868501518155019401920161093d565b634e487b7160e01b600052604160045260246000fd5b600284016000526020600020908382015b81830181106109d657505061083f565b806109e360019254611ced565b806109f0575b50016109c6565b601f908181118414610a09575050600081555b896109e9565b610a2560009284845260208420920160051c8201858301611dfc565b81835555610a03565b83356001600160401b0381116101c357820136601f820112156101c357602091610a5f839236908481359101611cb6565b8152019301926107da565b336000526005602052604060002090610a8c610a87828886611ece565b611ede565b825492600160401b84101561099f57610aad60019485928382018155611c31565b92858060a01b0393848084549260031b9316831b921b1916179055336000526006602052604060002082610ae5610a87868c8a611ece565b1660005260205260406000209060ff19825416179055610b09610a87838987611ece565b16337fbc3292102fa77e083913064b282926717cdfaede4d35f553d66366c0a3da755a600080a301610779565b610b4b91600052602060002090810190611dfc565b8480610774565b6040516345d0f35560e01b8152600490fd5b60405163e77d7d5760e01b8152600490fd5b60405163aabd5a0960e01b8152600490fd5b5083602435116106e4565b50600584116106d3565b346101c35760203660031901126101c357610bb6611bdb565b7ff0c57e16840df040f15088dc2f81fe391c3923bec73e23a9662efc9c229c6a009081549060ff8260401c1615916001600160401b03811680159081610cfc575b6001149081610cf2575b159081610ce9575b50610cd75767ffffffffffffffff198116600117845582610cb8575b50610c2e611fca565b610c36611fca565b610c3f33611ef2565b610c47611fca565b610c4f611fca565b6001600160a01b0316801561024e576affffffffffffffffffffff60a81b6003541617600355610c7b57005b68ff00000000000000001981541690557fc7f505b2f371ae2175ee4913f4499e1f2633a7b5936321eed1cdaeb6115181d2602060405160018152a1005b68ffffffffffffffffff19166801000000000000000117835583610c25565b60405163f92ee8a960e01b8152600490fd5b90501585610c09565b303b159150610c01565b849150610bf7565b346101c35760003660031901126101c3576020600254604051908152f35b346101c35760203660031901126101c3576001600160a01b03610d43611bdb565b166000526000602052610d70610d5c6040600020611d27565b604051918291602083526020830190611bf1565b0390f35b346101c35760003660031901126101c357610d70604051610d9481611c5f565b60058152640352e302e360dc1b6020820152604051918291602083526020830190611bf1565b346101c35760403660031901126101c357610dd3611bdb565b6001600160401b03906024358281116101c357610df4903690600401611bae565b91610dfd611f66565b60018060a01b0316918260005260209360068552604060002033600052855260ff60406000205416156105ca5783600052600785526040600020906001908183015480158015611041575b8015611030575b61101e5786600052600488526040600020908154610e109081810291818304149015171561041957610e8091611ec1565b421061100c5782600285015491015411610ffa578560005260008752604060002090841161099f57610ebc84610eb68354611ced565b83611e13565b6000601f8511600114610f85579160008051602061208f83398151915296979391610f018680600396600091610f7a575b508160011b916000199060031b1c19161790565b90555b876000528352426040600020550161010061ff0019825416179055847f13c771563a16f02af4efc013304241799d98b4f54d3259db3d0d02a9267d101a60405183815280610f558582018789611e67565b0390a2610f6f604051938493604085526040850191611e67565b9042908301520390a2005b90508901358c610eed565b601f1985169082600052886000209160005b818110610fe557509160008051602061208f8339815191529899959391876003969410610fcd575b50508186811b019055610f04565b88013560001988871b60f8161c191690558980610fbf565b88830135845592850192918a01918a01610f97565b604051633048076b60e11b8152600490fd5b60405163191f4d1b60e31b8152600490fd5b60405163cbfae98d60e01b8152600490fd5b5060ff600385015460081c16610e4f565b5060ff600385015416610e48565b346101c3576020806003193601126101c357611069611bdb565b611071611f66565b6001600160a01b03166000818152600683526040808220338352845290205460ff16156105ca5780600052600782526040600020600181015415801561114d575b801561113c575b61101e57600481013360005280845260ff6040600020541661112a577f09ba9aae59b148fb52366bdf0fa0f92591643c187095c73c0098c75687829d84916002913360005285526040600020600160ff19825416179055019261111c8454611e58565b8094556040519384523393a3005b604051637c9a1cf960e01b8152600490fd5b5060ff600382015460081c166110b9565b5060ff6003820154166110b2565b346101c35760003660031901126101c35760008051602061206f833981519152546040516001600160a01b039091168152602090f35b346101c35760003660031901126101c35760035460ff8160a01c16600014611211576001600160a01b03163303610260575b6111cb611f66565b6000805160206120af833981519152600160ff198254161790557f62e78cea01bee320cd4e420270b5ea74000d11b0c9f74754ebdbfc544b05a2586020604051338152a1005b5061121a611f91565b6111c3565b346101c35760203660031901126101c3576001600160a01b03611240611bdb565b1660005260046020526080604060002080549060018101549060ff6004600383015492015416916040519384526020840152604083015215156060820152f35b346101c35760003660031901126101c357602060ff60035460a01c166040519015158152f35b346101c35760003660031901126101c3576112bf611f91565b60008051602061206f83398151915280546001600160a01b031981169091556000906001600160a01b03167f8be0079c531659141344cd1fd0a4f28419497f9722a3daafe3b4186f6b6457e08280a3005b346101c35760003660031901126101c357602060ff6000805160206120af83398151915254166040519015158152f35b346101c35760003660031901126101c357610d7060405161136081611c5f565b60058152640322e302e360dc1b6020820152604051918291602083526020830190611bf1565b346101c35760003660031901126101c3577f00000000000000000000000000000000000000000000000000000000000000006001600160a01b031630036113f15760206040517f360894a13ba1a3210667c828492db98dca3e2076cc3735a920a3ca505d382bbc8152f35b60405163703e46dd60e11b8152600490fd5b60403660031901126101c357611417611bdb565b6024356001600160401b0381116101c357366023820112156101c357611447903690602481600401359101611cb6565b906001600160a01b037f00000000000000000000000000000000000000000000000000000000000000008116308114908115611624575b506113f1578060035460ff8160a01c1660001461161557163303610260575b6040516352d1902d60e01b8152908216916020918281600481875afa600091816115e6575b506114e057604051634c9c8ce360e01b815260048101859052602490fd5b9284937f360894a13ba1a3210667c828492db98dca3e2076cc3735a920a3ca505d382bbc908181036115ce5750823b156115b55780546001600160a01b03191682179055604051907fbc7cd75a20ee27fd9adebab32041f755214dbc6bffa90cc0225b39da2e5c2d3b600080a283511561159b575060008084846102a896519101845af4903d15611592573d61157581611c9b565b906115836040519283611c7a565b8152600081943d92013e61200b565b6060925061200b565b92505050346115a657005b63b398979f60e01b8152600490fd5b604051634c9c8ce360e01b815260048101839052602490fd5b60249060405190632a87526960e21b82526004820152fd5b9091508381813d831161160e575b6115fe8183611c7a565b810103126101c3575190866114c2565b503d6115f4565b505061161f611f91565b61149d565b9050817f360894a13ba1a3210667c828492db98dca3e2076cc3735a920a3ca505d382bbc541614158461147e565b346101c35760403660031901126101c35761166b611bdb565b6024359060018060a01b038091166000526005602052604060002080548310156101c35760209261169b91611c31565b9190546040519260031b1c168152f35b346101c35760003660031901126101c3576003546040516001600160a01b039091168152602090f35b346101c35760003660031901126101c357602060405160058152f35b346101c35760003660031901126101c35760035460ff8160a01c16600014611780576001600160a01b03163303610260575b6000805160206120af833981519152805460ff81161561176e5760ff191690557f5db9ee0a495bf2e6ff9c91a7834c1ba4fdd244a5e8aa4e537bd38aeae4b073aa6020604051338152a1005b604051638dfc202b60e01b8152600490fd5b50611789611f91565b611722565b346101c3576020806003193601126101c3576001600160a01b036117b0611bdb565b16600052600481526040600020805491600192600183015492600281019260ff60046003840154930154169284546117e781611eaa565b906117f56040519283611c7a565b808252888483018098600052856000206000915b84831061188a5750505050506040519660a088019288528388015260a060408801525180915260c086019160c08260051b88010195926000905b83821061185f5788808989896060840152151560808301520390f35b9091929396838061187b8c9360bf198d82030186528b51611bf1565b99019201920190939291611843565b8388819261189a859b9a9b611d27565b815201920192019190969596611809565b346101c35760003660031901126101c35760206118c6611e88565b604051908152f35b346101c35760003660031901126101c3573360005260076020526040600020600181015415801561194c575b801561193b575b61101e57600301805460ff19166001179055337f8154b6c5e1fc90d44b49808ef93f9739148d0821411890f8cd684385e24b9f1e600080a2005b5060ff600382015460081c16611901565b5060ff6003820154166118fa565b346101c35760203660031901126101c3576001600160a01b0361197b611bdb565b1660005260016020526020604060002054604051908152f35b346101c3576020806003193601126101c3576001600160401b036004358181116101c3576119c6903690600401611bae565b906119cf611f66565b33600052600084526119e5604060002054611ced565b15923360005260008552604060002090831161099f57611a0983610eb68354611ced565b6000601f8411600114611b345793611a759291611a4c858060008051602061208f83398151915298600091611b2957508160011b916000199060031b1c19161790565b90555b336000526001865242604060002055611a83575b60405192604084526040840191611e67565b9242908201528033930390a2005b611a8e600254611e58565b806002556040518181527fe29d35093005f4d575e1003753426b57a7f64378ba73332eef9c6ccc2b8decd6873392a2856101f482101580611b19575b611ad6575b5050611a63565b6003805460ff60a01b1916600160a01b1790556040519182527f8bb6efd782a840326f30b67cfd80c722b717fa4aa858c570971781a1b4ea1d2491a18585611acf565b5060ff60035460a01c1615611aca565b90508501358a610eed565b601f1984169082600052866000209160005b88828210611b9857505091611a759493918660008051602061208f833981519152989410611b7e575b5050600185811b019055611a4f565b840135600019600388901b60f8161c191690558780611b6f565b6001849582939589013581550194019201611b46565b9181601f840112156101c3578235916001600160401b0383116101c357602083818601950101116101c357565b600435906001600160a01b03821682036101c357565b919082519283825260005b848110611c1d575050826000602080949584010152601f8019910116010190565b602081830181015184830182015201611bfc565b8054821015611c495760005260206000200190600090565b634e487b7160e01b600052603260045260246000fd5b604081019081106001600160401b0382111761099f57604052565b90601f801991011681019081106001600160401b0382111761099f57604052565b6001600160401b03811161099f57601f01601f191660200190565b929192611cc282611c9b565b91611cd06040519384611c7a565b8294818452818301116101c3578281602093846000960137010152565b90600182811c92168015611d1d575b6020831014611d0757565b634e487b7160e01b600052602260045260246000fd5b91607f1691611cfc565b90604051918260008254611d3a81611ced565b90818452602094600191600181169081600014611daa5750600114611d6b575b505050611d6992500383611c7a565b565b600090815285812095935091905b818310611d92575050611d699350820101388080611d5a565b85548884018501529485019487945091830191611d79565b92505050611d6994925060ff191682840152151560051b820101388080611d5a565b9181601f840112156101c3578235916001600160401b0383116101c3576020808501948460051b0101116101c357565b818110611e07575050565b60008155600101611dfc565b9190601f8111611e2257505050565b611d69926000526020600020906020601f840160051c83019310611e4e575b601f0160051c0190611dfc565b9091508190611e41565b60001981146104195760010190565b908060209392818452848401376000828201840152601f01601f1916010190565b6002546101f49081811015611ea35781039081116104195790565b5050600090565b6001600160401b03811161099f5760051b60200190565b9190820180921161041957565b9190811015611c495760051b0190565b356001600160a01b03811681036101c35790565b6001600160a01b03908116908115611f4d5760008051602061206f83398151915280546001600160a01b031981168417909155167f8be0079c531659141344cd1fd0a4f28419497f9722a3daafe3b4186f6b6457e0600080a3565b604051631e4fbdf760e01b815260006004820152602490fd5b60ff6000805160206120af8339815191525416611f7f57565b60405163d93c066560e01b8152600490fd5b60008051602061206f833981519152546001600160a01b03163303611fb257565b60405163118cdaa760e01b8152336004820152602490fd5b60ff7ff0c57e16840df040f15088dc2f81fe391c3923bec73e23a9662efc9c229c6a005460401c1615611ff957565b604051631afcd79f60e31b8152600490fd5b90612032575080511561202057602081519101fd5b60405163d6bda27560e01b8152600490fd5b81511580612065575b612043575090565b604051639996b31560e01b81526001600160a01b039091166004820152602490fd5b50803b1561203b56fe9016d09d72d40fdae2fd8ceac6b6234c7706214fd39c1cd1e609a0528c199300dcb94c0b2c025b0736b4b62b1c595f2ca7ad4c711eada6026d477e87de9cca08cd5ed15c6e187e77e9aee88184c21f4f2182ab5827cb3b7e07fbedcd63f03300a264697066735822122075af43983fca9414fc4c085303049ac72f4db4d99ad6962d0d6d089664972cee64736f6c63430008180033",
  "linkReferences": {},
  "deployedLinkReferences": {}
}